{
  "_format": "hh-sol-artifact-1",
  "contractName": "Market",
  "sourceName": "contracts/Market.sol",
  "abi": [
    {
      "inputs": [
        {
          "internalType": "address",
          "name": "target",
          "type": "address"
        }
      ],
      "name": "AddressEmptyCode",
      "type": "error"
    },
    {
      "inputs": [
        {
          "internalType": "address",
          "name": "account",
          "type": "address"
        }
      ],
      "name": "AddressInsufficientBalance",
      "type": "error"
    },
    {
      "inputs": [
        {
          "internalType": "address",
          "name": "implementation",
          "type": "address"
        }
      ],
      "name": "ERC1967InvalidImplementation",
      "type": "error"
    },
    {
      "inputs": [],
      "name": "ERC1967NonPayable",
      "type": "error"
    },
    {
      "inputs": [],
      "name": "FailedInnerCall",
      "type": "error"
    },
    {
      "inputs": [
        {
          "internalType": "string",
          "name": "fiat",
          "type": "string"
        }
      ],
      "name": "InvalidFiat",
      "type": "error"
    },
    {
      "inputs": [],
      "name": "InvalidInitialization",
      "type": "error"
    },
    {
      "inputs": [
        {
          "internalType": "string",
          "name": "method",
          "type": "string"
        }
      ],
      "name": "InvalidMethod",
      "type": "error"
    },
    {
      "inputs": [
        {
          "internalType": "string",
          "name": "token",
          "type": "string"
        }
      ],
      "name": "InvalidToken",
      "type": "error"
    },
    {
      "inputs": [],
      "name": "NotInitializing",
      "type": "error"
    },
    {
      "inputs": [
        {
          "internalType": "address",
          "name": "owner",
          "type": "address"
        }
      ],
      "name": "OwnableInvalidOwner",
      "type": "error"
    },
    {
      "inputs": [
        {
          "internalType": "address",
          "name": "account",
          "type": "address"
        }
      ],
      "name": "OwnableUnauthorizedAccount",
      "type": "error"
    },
    {
      "inputs": [
        {
          "internalType": "address",
          "name": "token",
          "type": "address"
        }
      ],
      "name": "SafeERC20FailedOperation",
      "type": "error"
    },
    {
      "inputs": [],
      "name": "UUPSUnauthorizedCallContext",
      "type": "error"
    },
    {
      "inputs": [
        {
          "internalType": "bytes32",
          "name": "slot",
          "type": "bytes32"
        }
      ],
      "name": "UUPSUnsupportedProxiableUUID",
      "type": "error"
    },
    {
      "inputs": [
        {
          "internalType": "address",
          "name": "account",
          "type": "address"
        }
      ],
      "name": "UnauthorizedAccount",
      "type": "error"
    },
    {
      "anonymous": false,
      "inputs": [
        {
          "indexed": true,
          "internalType": "address",
          "name": "offerOwner",
          "type": "address"
        },
        {
          "indexed": true,
          "internalType": "address",
          "name": "taker",
          "type": "address"
        },
        {
          "indexed": true,
          "internalType": "address",
          "name": "offer",
          "type": "address"
        },
        {
          "indexed": false,
          "internalType": "address",
          "name": "deal",
          "type": "address"
        }
      ],
      "name": "DealCreated",
      "type": "event"
    },
    {
      "anonymous": false,
      "inputs": [
        {
          "indexed": false,
          "internalType": "uint64",
          "name": "version",
          "type": "uint64"
        }
      ],
      "name": "Initialized",
      "type": "event"
    },
    {
      "anonymous": false,
      "inputs": [
        {
          "indexed": true,
          "internalType": "address",
          "name": "owner",
          "type": "address"
        },
        {
          "indexed": true,
          "internalType": "string",
          "name": "token",
          "type": "string"
        },
        {
          "indexed": true,
          "internalType": "string",
          "name": "fiat",
          "type": "string"
        },
        {
          "indexed": false,
          "internalType": "contract Offer",
          "name": "offer",
          "type": "address"
        }
      ],
      "name": "OfferCreated",
      "type": "event"
    },
    {
      "anonymous": false,
      "inputs": [
        {
          "indexed": true,
          "internalType": "address",
          "name": "previousOwner",
          "type": "address"
        },
        {
          "indexed": true,
          "internalType": "address",
          "name": "newOwner",
          "type": "address"
        }
      ],
      "name": "OwnershipTransferred",
      "type": "event"
    },
    {
      "anonymous": false,
      "inputs": [
        {
          "indexed": true,
          "internalType": "address",
          "name": "implementation",
          "type": "address"
        }
      ],
      "name": "Upgraded",
      "type": "event"
    },
    {
      "inputs": [],
      "name": "UPGRADE_INTERFACE_VERSION",
      "outputs": [
        {
          "internalType": "string",
          "name": "",
          "type": "string"
        }
      ],
      "stateMutability": "view",
      "type": "function"
    },
    {
      "inputs": [
        {
          "internalType": "contract Deal",
          "name": "deal",
          "type": "address"
        }
      ],
      "name": "addDeal",
      "outputs": [],
      "stateMutability": "nonpayable",
      "type": "function"
    },
    {
      "inputs": [
        {
          "components": [
            {
              "internalType": "string",
              "name": "symbol",
              "type": "string"
            },
            {
              "internalType": "contract IChainlink",
              "name": "toUSD",
              "type": "address"
            }
          ],
          "internalType": "struct Fiats.Fiat[]",
          "name": "fiats_",
          "type": "tuple[]"
        }
      ],
      "name": "addFiats",
      "outputs": [],
      "stateMutability": "nonpayable",
      "type": "function"
    },
    {
      "inputs": [
        {
          "components": [
            {
              "internalType": "string",
              "name": "name",
              "type": "string"
            },
            {
              "internalType": "enum Methods.Group",
              "name": "group",
              "type": "uint8"
            }
          ],
          "internalType": "struct Methods.Method[]",
          "name": "new_",
          "type": "tuple[]"
        }
      ],
      "name": "addMethods",
      "outputs": [],
      "stateMutability": "nonpayable",
      "type": "function"
    },
    {
      "inputs": [
        {
          "internalType": "contract Offer",
          "name": "offer",
          "type": "address"
        }
      ],
      "name": "addOffer",
      "outputs": [],
      "stateMutability": "nonpayable",
      "type": "function"
    },
    {
      "inputs": [
        {
          "internalType": "address[]",
          "name": "tokens_",
          "type": "address[]"
        },
        {
          "internalType": "uint16",
          "name": "uniswapPoolFee",
          "type": "uint16"
        }
      ],
      "name": "addTokens",
      "outputs": [],
      "stateMutability": "nonpayable",
      "type": "function"
    },
    {
      "inputs": [
        {
          "internalType": "uint256",
          "name": "amount_",
          "type": "uint256"
        },
        {
          "internalType": "string",
          "name": "fromFiat_",
          "type": "string"
        },
        {
          "internalType": "string",
          "name": "toToken_",
          "type": "string"
        },
        {
          "internalType": "uint256",
          "name": "denominator",
          "type": "uint256"
        }
      ],
      "name": "convert",
      "outputs": [
        {
          "internalType": "uint256",
          "name": "amount",
          "type": "uint256"
        }
      ],
      "stateMutability": "view",
      "type": "function"
    },
    {
      "inputs": [],
      "name": "dealFactory",
      "outputs": [
        {
          "internalType": "contract DealFactory",
          "name": "",
          "type": "address"
        }
      ],
      "stateMutability": "view",
      "type": "function"
    },
    {
      "inputs": [
        {
          "internalType": "string",
          "name": "symbol_",
          "type": "string"
        }
      ],
      "name": "fiat",
      "outputs": [
        {
          "components": [
            {
              "internalType": "string",
              "name": "symbol",
              "type": "string"
            },
            {
              "internalType": "contract IChainlink",
              "name": "toUSD",
              "type": "address"
            }
          ],
          "internalType": "struct Fiats.Fiat",
          "name": "",
          "type": "tuple"
        }
      ],
      "stateMutability": "view",
      "type": "function"
    },
    {
      "inputs": [],
      "name": "fundDeal",
      "outputs": [],
      "stateMutability": "nonpayable",
      "type": "function"
    },
    {
      "inputs": [],
      "name": "getFiats",
      "outputs": [
        {
          "internalType": "bytes32[]",
          "name": "",
          "type": "bytes32[]"
        }
      ],
      "stateMutability": "view",
      "type": "function"
    },
    {
      "inputs": [],
      "name": "getMethods",
      "outputs": [
        {
          "components": [
            {
              "internalType": "string",
              "name": "name",
              "type": "string"
            },
            {
              "internalType": "enum Methods.Group",
              "name": "group",
              "type": "uint8"
            }
          ],
          "internalType": "struct Methods.Method[]",
          "name": "",
          "type": "tuple[]"
        }
      ],
      "stateMutability": "view",
      "type": "function"
    },
    {
      "inputs": [
        {
          "internalType": "bool",
          "name": "isSell_",
          "type": "bool"
        },
        {
          "internalType": "string",
          "name": "token_",
          "type": "string"
        },
        {
          "internalType": "string",
          "name": "fiat_",
          "type": "string"
        },
        {
          "internalType": "string",
          "name": "method_",
          "type": "string"
        }
      ],
      "name": "getOffers",
      "outputs": [
        {
          "internalType": "address[]",
          "name": "",
          "type": "address[]"
        }
      ],
      "stateMutability": "view",
      "type": "function"
    },
    {
      "inputs": [
        {
          "internalType": "string",
          "name": "token_",
          "type": "string"
        },
        {
          "internalType": "string",
          "name": "fiat_",
          "type": "string"
        }
      ],
      "name": "getPrice",
      "outputs": [
        {
          "internalType": "uint256",
          "name": "price",
          "type": "uint256"
        }
      ],
      "stateMutability": "view",
      "type": "function"
    },
    {
      "inputs": [],
      "name": "getTokens",
      "outputs": [
        {
          "components": [
            {
              "internalType": "contract IERC20Metadata",
              "name": "api",
              "type": "address"
            },
            {
              "internalType": "string",
              "name": "symbol",
              "type": "string"
            },
            {
              "internalType": "string",
              "name": "name",
              "type": "string"
            },
            {
              "internalType": "uint8",
              "name": "decimals",
              "type": "uint8"
            },
            {
              "internalType": "uint16",
              "name": "uniswapPoolFee",
              "type": "uint16"
            }
          ],
          "internalType": "struct Tokens.Token[]",
          "name": "",
          "type": "tuple[]"
        }
      ],
      "stateMutability": "view",
      "type": "function"
    },
    {
      "inputs": [
        {
          "internalType": "address",
          "name": "offer_",
          "type": "address"
        }
      ],
      "name": "hasOffer",
      "outputs": [
        {
          "internalType": "bool",
          "name": "",
          "type": "bool"
        }
      ],
      "stateMutability": "view",
      "type": "function"
    },
    {
      "inputs": [
        {
          "internalType": "address",
          "name": "offerFactory_",
          "type": "address"
        },
        {
          "internalType": "address",
          "name": "dealFactory_",
          "type": "address"
        },
        {
          "internalType": "address",
          "name": "repToken_",
          "type": "address"
        },
        {
          "internalType": "address",
          "name": "uniswap_",
          "type": "address"
        }
      ],
      "name": "initialize",
      "outputs": [],
      "stateMutability": "nonpayable",
      "type": "function"
    },
    {
      "inputs": [],
      "name": "mediator",
      "outputs": [
        {
          "internalType": "address",
          "name": "",
          "type": "address"
        }
      ],
      "stateMutability": "view",
      "type": "function"
    },
    {
      "inputs": [
        {
          "internalType": "string",
          "name": "symbol_",
          "type": "string"
        }
      ],
      "name": "method",
      "outputs": [
        {
          "components": [
            {
              "internalType": "string",
              "name": "name",
              "type": "string"
            },
            {
              "internalType": "enum Methods.Group",
              "name": "group",
              "type": "uint8"
            }
          ],
          "internalType": "struct Methods.Method",
          "name": "",
          "type": "tuple"
        }
      ],
      "stateMutability": "view",
      "type": "function"
    },
    {
      "inputs": [],
      "name": "offerFactory",
      "outputs": [
        {
          "internalType": "contract OfferFactory",
          "name": "",
          "type": "address"
        }
      ],
      "stateMutability": "view",
      "type": "function"
    },
    {
      "inputs": [],
      "name": "owner",
      "outputs": [
        {
          "internalType": "address",
          "name": "",
          "type": "address"
        }
      ],
      "stateMutability": "view",
      "type": "function"
    },
    {
      "inputs": [],
      "name": "proxiableUUID",
      "outputs": [
        {
          "internalType": "bytes32",
          "name": "",
          "type": "bytes32"
        }
      ],
      "stateMutability": "view",
      "type": "function"
    },
    {
      "inputs": [
        {
          "internalType": "string[]",
          "name": "fiat_",
          "type": "string[]"
        }
      ],
      "name": "removeFiats",
      "outputs": [],
      "stateMutability": "nonpayable",
      "type": "function"
    },
    {
      "inputs": [
        {
          "internalType": "string[]",
          "name": "names_",
          "type": "string[]"
        }
      ],
      "name": "removeMethods",
      "outputs": [],
      "stateMutability": "nonpayable",
      "type": "function"
    },
    {
      "inputs": [
        {
          "internalType": "string[]",
          "name": "token_",
          "type": "string[]"
        }
      ],
      "name": "removeTokens",
      "outputs": [],
      "stateMutability": "nonpayable",
      "type": "function"
    },
    {
      "inputs": [],
      "name": "renounceOwnership",
      "outputs": [],
      "stateMutability": "nonpayable",
      "type": "function"
    },
    {
      "inputs": [],
      "name": "repToken",
      "outputs": [
        {
          "internalType": "contract RepToken",
          "name": "",
          "type": "address"
        }
      ],
      "stateMutability": "view",
      "type": "function"
    },
    {
      "inputs": [
        {
          "internalType": "address",
          "name": "dealFactory_",
          "type": "address"
        }
      ],
      "name": "setDealFactory",
      "outputs": [],
      "stateMutability": "nonpayable",
      "type": "function"
    },
    {
      "inputs": [
        {
          "internalType": "address",
          "name": "mediator_",
          "type": "address"
        }
      ],
      "name": "setMediator",
      "outputs": [],
      "stateMutability": "nonpayable",
      "type": "function"
    },
    {
      "inputs": [
        {
          "internalType": "address",
          "name": "offerFactory_",
          "type": "address"
        }
      ],
      "name": "setOfferFactory",
      "outputs": [],
      "stateMutability": "nonpayable",
      "type": "function"
    },
    {
      "inputs": [
        {
          "internalType": "string",
          "name": "symbol_",
          "type": "string"
        }
      ],
      "name": "token",
      "outputs": [
        {
          "components": [
            {
              "internalType": "contract IERC20Metadata",
              "name": "api",
              "type": "address"
            },
            {
              "internalType": "string",
              "name": "symbol",
              "type": "string"
            },
            {
              "internalType": "string",
              "name": "name",
              "type": "string"
            },
            {
              "internalType": "uint8",
              "name": "decimals",
              "type": "uint8"
            },
            {
              "internalType": "uint16",
              "name": "uniswapPoolFee",
              "type": "uint16"
            }
          ],
          "internalType": "struct Tokens.Token",
          "name": "",
          "type": "tuple"
        }
      ],
      "stateMutability": "view",
      "type": "function"
    },
    {
      "inputs": [
        {
          "internalType": "address",
          "name": "newOwner",
          "type": "address"
        }
      ],
      "name": "transferOwnership",
      "outputs": [],
      "stateMutability": "nonpayable",
      "type": "function"
    },
    {
      "inputs": [
        {
          "internalType": "address",
          "name": "newImplementation",
          "type": "address"
        },
        {
          "internalType": "bytes",
          "name": "data",
          "type": "bytes"
        }
      ],
      "name": "upgradeToAndCall",
      "outputs": [],
      "stateMutability": "payable",
      "type": "function"
    }
  ],
  "bytecode": "0x60a0806040523460295730608052613cc1908161002f82396080518181816117dc01526118810152f35b600080fdfe6080604052600436101561001257600080fd5b6000803560e01c806313c44c611461243b5780631e7f300f146123fb57806323596d1f1461225357806329034a5c1461222a5780632c3d6c7e146120525780633364da6e14611f645780633d0f34da14611f0757806341c2440a14611e9c57806349e3ec5e14611e5c5780634bc5722814611a2e5780634f1ef2861461183157806352d1902d146117c95780636aeb4594146116455780636d0501f61461161c578063715018a6146115b25780638da5cb5b1461157c57806392fd22b914611553578063946ad0e81461150357806399b72fd8146114c85780639b610c2114611488578063a553269b1461112c578063aa6ca80814610fb4578063ad3cb1cc14610f67578063c300db4714610ed2578063c5034dd014610e3c578063c5f2b41414610a9b578063d248dcba146106b6578063dc2ac0ce14610600578063ec4e89561461055f578063ecd7cf7814610536578063f2fde38b14610509578063f8c8765e146103085763fecc7aa41461018857600080fd5b34610305576080366003190112610305576004358015158103610301576024356001600160401b0381116102fd576101c49036906004016126c0565b91906044356001600160401b0381116102f9576101e59036906004016126c0565b90936064356001600160401b0381116102f5576102069036906004016126c0565b9390946000146102cb579161023b95916020610235948260405193849283378101600b81520301902091613704565b91613704565b604051908160208254918281520190819285526020852090855b8181106102b5575050508261026b91038361254f565b604051928392602084019060208552518091526040840192915b818110610293575050500390f35b82516001600160a01b0316845285945060209384019390920191600101610285565b8254845260209093019260019283019201610255565b916102f095916020610235948260405193849283378101600c81520301902091613704565b61023b565b8680fd5b8480fd5b8280fd5b5080fd5b80fd5b5034610305576080366003190112610305576103226124ed565b6024356001600160a01b038116908190036102fd576044356001600160a01b03811690819003610505576064356001600160a01b03811692908390036102f957600080516020613c6c833981519152549360ff8560401c1615946001600160401b038116801590816104fd575b60011490816104f3575b1590816104ea575b506104db5767ffffffffffffffff198116600117600080516020613c6c83398151915255856104ae575b506103d461371d565b6103dc61371d565b6103e5336131de565b336001600160601b0360a01b601454161760145560018060a01b03166001600160601b0360a01b60115416176011556001600160601b0360a01b60105416176010556001600160601b0360a01b60125416176012556001600160601b0360a01b60135416176013556104545780f35b68ff000000000000000019600080516020613c6c8339815191525416600080516020613c6c833981519152557fc7f505b2f371ae2175ee4913f4499e1f2633a7b5936321eed1cdaeb6115181d2602060405160018152a180f35b68ffffffffffffffffff19166801000000000000000117600080516020613c6c83398151915255386103cb565b63f92ee8a960e01b8752600487fd5b905015386103a1565b303b159150610399565b87915061038f565b8380fd5b5034610305576020366003190112610305576105336105266124ed565b61052e613254565b6131de565b80f35b50346103055780600319360112610305576011546040516001600160a01b039091168152602090f35b503461030557602036600319011261030557600435906001600160401b038211610305576105ec6105a461059636600486016125c2565b61059e612799565b50613421565b604051906105b182612503565b6105ba816130b0565b8252600101546001600160a01b0316602080830191825260408051828152935191840152919283926060840190612603565b90516001600160a01b031660408301520390f35b503461030557806003193601126103055760405180602060035491828152018091600385527fc2575a0e9e593c00f959f8c92f12db2869c3395a3b0502d05e2516446f71f85b90855b8181106106a0575050508261065f91038361254f565b604051928392602084019060208552518091526040840192915b818110610687575050500390f35b8251845285945060209384019390920191600101610679565b8254845260209093019260019283019201610649565b5034610305576040366003190112610305576004356001600160401b038111610301576106e79036906004016124bd565b906024359061ffff821680920361050557610700613254565b835b8360ff82161015610a9757611fe0600582901b168201356001600160a01b03811690819003610a93576040516395d89b4160e01b8152908682600481845afa918215610a88578792610a6c575b506107598261328a565b9061076382613af5565b506040516306fdde0360e01b81528881600481855afa908115610a61578991610a3f575b5060405163313ce56760e01b815293602085600481865afa948515610a34578a956109f3575b50604051926107bb84612534565b83526020808401918252604080850193845260ff9690961660608501908152608085018a8152958c526002909152948a20925183546001600160a01b0319166001600160a01b03919091161783555180516001840191906001600160401b0381116109df576108348161082e8554613076565b85613313565b60208c601f831160011461097c579061086293836108ee575b50508160011b916000199060031b1c19161790565b90555b51805160028301916001600160401b038211610968576108898261082e8554613076565b6020908b601f84116001146108f957836003946108e99a9998979460ff97946108c694926108ee5750508160011b916000199060031b1c19161790565b90555b0192511662ffff008354925160081b169162ffffff191617179055612772565b610702565b01519050388061084d565b50838c52818c209190601f1984168d5b8181106109505750936108e9999897969360ff96936001938360039810610938575b505050811b0190556108c9565b015160001983881b60f8161c1916905538808061092b565b92936020600181928786015181550195019301610909565b634e487b7160e01b8b52604160045260248bfd5b9192601f198416858452828420935b8181106109c757509084600195949392106109ae575b505050811b019055610865565b015160001960f88460031b161c191690553880806109a1565b9293602060018192878601518155019501930161098b565b634e487b7160e01b8c52604160045260248cfd5b9094506020813d8211610a2c575b81610a0e6020938361254f565b81010312610a28575160ff81168103610a285793386107ad565b8980fd5b3d9150610a01565b6040513d8c823e3d90fd5b610a5b91503d808b833e610a53818361254f565b810190612feb565b38610787565b6040513d8b823e3d90fd5b610a819192503d8089833e610a53818361254f565b903861074f565b6040513d89823e3d90fd5b8580fd5b8480f35b5034610305578060031936011261030557338152600e602052610ac5604082205415153390612f8b565b60405163c19d93fb60e01b8152602081600481335afa908115610cfd578291610e01575b506008811015610ded57600103610db9576040516360146f8360e11b8152602081600481335afa908115610cfd576004916020918491610d9c575b5060405163062b864360e11b815292839182906001600160a01b03165afa908115610cfd578291610d6d575b5015610d34576040516360146f8360e11b815281602082600481335afa8015610d27576004928291610d08575b50604051637e062a3560e11b815292839182906001600160a01b03165afa908115610cfd578291610ce3575b506001600160a01b0390610bbc90613154565b51166040516360146f8360e11b8152602081600481335afa908115610cbb576004916020918591610cc6575b50604051638da5cb5b60e01b815292839182906001600160a01b03165afa908115610cbb578391610c8c575b5060405163eec7faa160e01b815291602083600481335afa918215610c81578492610c46575b610533935033916135e2565b91506020833d602011610c79575b81610c616020938361254f565b81010312610c7457610533925191610c3a565b600080fd5b3d9150610c54565b6040513d86823e3d90fd5b610cae915060203d602011610cb4575b610ca6818361254f565b810190612fb4565b38610c14565b503d610c9c565b6040513d85823e3d90fd5b610cdd9150823d8411610cb457610ca6818361254f565b38610be8565b610cf791503d8084833e610a53818361254f565b38610ba9565b6040513d84823e3d90fd5b610d21915060203d602011610cb457610ca6818361254f565b38610b7d565b50604051903d90823e3d90fd5b60405162461bcd60e51b81526020600482015260116024820152703737ba1039b2b63634b7339037b33332b960791b6044820152606490fd5b610d8f915060203d602011610d95575b610d87818361254f565b810190612fd3565b38610b50565b503d610d7d565b610db39150823d8411610cb457610ca6818361254f565b38610b24565b60405162461bcd60e51b815260206004820152600c60248201526b1b9bdd081858d8d95c1d195960a21b6044820152606490fd5b634e487b7160e01b82526021600452602482fd5b90506020813d602011610e34575b81610e1c6020938361254f565b81010312610301575160088110156103015738610ae9565b3d9150610e0f565b5034610305576020366003190112610305576004356001600160401b03811161030157610e6d9036906004016124bd565b90610e76613254565b825b60ff81169083821015610a9757610ea5610ea0610e99610ecd94878761271f565b369161258b565b61328a565b610eae816138e7565b508552600560205284600160408220610ec6816132c4565b0155612772565b610e78565b5034610305576020366003190112610305576004356001600160401b03811161030157610f039036906004016124bd565b90610f0c613254565b825b60ff81169083821015610a9757610f2f610ea0610e99610f6294878761271f565b610f3881613833565b508552600260205284600360408220828155610f56600182016132c4565b610ec6600282016132c4565b610f0e565b503461030557806003193601126103055750610fb0604051610f8a60408261254f565b60058152640352e302e360dc1b6020820152604051918291602083526020830190612603565b0390f35b50346103055780600319360112610305578054610fd0816133d9565b90610fde604051928361254f565b808252610fed601f19916133d9565b01825b818110611115575050815490825b81518110156110ae578281101561109a57600190848052806020862001548560031b1c855260026020526040852061ffff60036040519261103e84612534565b858060a01b0381541684526110548682016130b0565b6020850152611065600282016130b0565b6040850152015460ff8116606084015260081c166080820152611088828561340d565b52611093818461340d565b5001610ffe565b634e487b7160e01b84526032600452602484fd5b81846040519182916020830160208452825180915260408401602060408360051b870101940192905b8282106110e657505050500390f35b919360019193955060206111058192603f198a82030186528851612668565b96019201920185949391926110d7565b602090611120613049565b82828601015201610ff0565b5034610305576020366003190112610305576004356001600160a01b038116908190036103015760115461116c9033906001600160a01b03168114612f8b565b61117581613aa0565b1561145a57604051637e062a3560e11b81528281600481855afa908115610cbb578391611440575b5060405163052876e560e51b8152908382600481865afa918215610c81578492611424575b50604051632c383a9f60e01b8152918483600481875afa928315611369578593611408575b5060405163062b864360e11b815291602083600481885afa80156113fd57859387916113de575b50156113b1579261125961125f926112598661125387602361123b6112356112649c6136b8565b876136de565b6040519062414e5960e81b8252600382015220613b4a565b506136b8565b906136de565b613b4a565b505b604051638da5cb5b60e01b815290602082600481845afa918215610cbb578392611390575b50604051637e062a3560e11b8152908382600481845afa918215610c81578492611374575b5060405163052876e560e51b8152918483600481855afa928315611369578593611320575b50602061130b6113057f82ae0d3670d19cfeac878346ea2a629534d5670adada464dbf5427fdcd4f94d9936131be565b946131be565b604051938452946001600160a01b031692a480f35b7f82ae0d3670d19cfeac878346ea2a629534d5670adada464dbf5427fdcd4f94d991935061130b61130561135f6020933d808b833e610a53818361254f565b95935050506112d5565b6040513d87823e3d90fd5b6113899192503d8086833e610a53818361254f565b90386112b0565b6113aa91925060203d602011610cb457610ca6818361254f565b903861128b565b9261125961125f92611259866113d287602361123b6112356113d89c613692565b50613692565b50611266565b6113f7915060203d602011610d9557610d87818361254f565b3861120e565b6040513d88823e3d90fd5b61141d9193503d8087833e610a53818361254f565b91386111e7565b6114399192503d8086833e610a53818361254f565b90386111c2565b61145491503d8085833e610a53818361254f565b3861119d565b60405162461bcd60e51b815260206004820152600660248201526565786973747360d01b6044820152606490fd5b5034610305576020366003190112610305576114a26124ed565b6114aa613254565b60018060a01b03166001600160601b0360a01b601154161760115580f35b5034610305576020366003190112610305576020906040906001600160a01b036114f06124ed565b168152600a835220541515604051908152f35b503461030557602036600319011261030557600435906001600160401b03821161030557610fb061153f61153a36600486016125c2565b613154565b604051918291602083526020830190612668565b50346103055780600319360112610305576010546040516001600160a01b039091168152602090f35b5034610305578060031936011261030557600080516020613c2c833981519152546040516001600160a01b039091168152602090f35b50346103055780600319360112610305576115cb613254565b600080516020613c2c83398151915280546001600160a01b0319811690915581906001600160a01b03167f8be0079c531659141344cd1fd0a4f28419497f9722a3daafe3b4186f6b6457e08280a380f35b50346103055780600319360112610305576014546040516001600160a01b039091168152602090f35b5034610305578060031936011261030557600654611662816133d9565b90611670604051928361254f565b808252601f1961167f826133d9565b01835b8181106117b2575050600654835b8281106116fe5783856040519182916020830160208452825180915260408401602060408360051b870101940192905b8282106116cf57505050500390f35b919360019193955060206116ee8192603f198a82030186528851612628565b96019201920185949391926116c0565b8181101561179e577ff652222313e28459528d920b65115c16c04f3efc82aaedc97be59f3f377c0d3f810154600386901b1c85526008602052604080862090519060ff9060019061174e84612503565b611757816130b0565b8452015416600481101561178a57602082015260019190611778828761340d565b52611783818661340d565b5001611690565b634e487b7160e01b87526021600452602487fd5b634e487b7160e01b85526032600452602485fd5b6020906117bd612799565b82828701015201611682565b50346103055780600319360112610305577f00000000000000000000000000000000000000000000000000000000000000006001600160a01b03163003611822576020604051600080516020613c4c8339815191528152f35b63703e46dd60e11b8152600490fd5b506040366003190112610305576118466124ed565b906024356001600160401b03811161030157366023820112156103015761187790369060248160040135910161258b565b6001600160a01b037f000000000000000000000000000000000000000000000000000000000000000016308114908115611a0b575b506119fc576118b9613254565b6040516352d1902d60e01b8152926001600160a01b0381169190602085600481865afa809585966119c8575b506118fe57634c9c8ce360e01b84526004839052602484fd5b909184600080516020613c4c83398151915281036119b65750813b156119a457600080516020613c4c83398151915280546001600160a01b031916821790557fbc7cd75a20ee27fd9adebab32041f755214dbc6bffa90cc0225b39da2e5c2d3b8480a2815183901561198a578083602061198695519101845af4611980613b9a565b91613bca565b5080f35b505050346119955780f35b63b398979f60e01b8152600490fd5b634c9c8ce360e01b8452600452602483fd5b632a87526960e21b8552600452602484fd5b9095506020813d6020116119f4575b816119e46020938361254f565b810103126102f9575194386118e5565b3d91506119d7565b63703e46dd60e11b8252600482fd5b600080516020613c4c833981519152546001600160a01b031614159050386118ac565b5034610305576020366003190112610305576004356001600160a01b038116919082900361030557601054611a6f9033906001600160a01b03168114612f8b565b6040516360146f8360e11b8152602081600481865afa908115610cfd578291611e3d575b506001600160a01b031691611aa781613a4b565b50828252600f6020526040822092835493600160401b851015611e295784611ad591600186970181556135ca565b81546001600160a01b0360039290921b91821b19169084901b179055604051638da5cb5b60e01b8152602081600481855afa908115610c81578491611e0a575b50604051633c159b0160e11b815290602082600481875afa80156113695783928691611deb575b506040518581526001600160a01b0391821692909116907f9e3ad268d37e8f67f13b2f7520dd416a4803c19e866fc335b606f6b401af6b4a90602090a460405163062b864360e11b8152602081600481855afa8015610c815784918291611dcc575b501580611d1d575b611c11575b50506012546001600160a01b031690813b15611c0d578291604483926040519586938492632f2ff15d60e01b8452684445414c5f524f4c4560b81b600485015260248401525af18015610d2757611bff5780f35b611c089161254f565b388180f35b5050fd5b604051637e062a3560e11b815291829060049082905afa908115610cbb578391611d03575b506001600160a01b0390611c4990613154565b51604051633c159b0160e11b81529116602082600481865afa918215610c81578492611ce2575b5060405163eec7faa160e01b8152602081600481875afa9182156113695784918693611ca9575b5092611ca2936135e2565b3882611bab565b915091506020813d602011611cda575b81611cc66020938361254f565b810103126102f95751908390611ca2611c97565b3d9150611cb9565b611cfc91925060203d602011610cb457610ca6818361254f565b9038611c70565b611d1791503d8085833e610a53818361254f565b38611c36565b5050604051633c159b0160e11b8152602081600481865afa908115610c81578491611dad575b50604051632474521560e21b81526529a2a62622a960d11b60048201526001600160a01b039091166024820152602081604481865afa8015610c815784918291611d8e575b50611ba6565b611da7915060203d602011610d9557610d87818361254f565b38611d88565b611dc6915060203d602011610cb457610ca6818361254f565b38611d43565b611de5915060203d602011610d9557610d87818361254f565b38611b9e565b611e04915060203d602011610cb457610ca6818361254f565b38611b3c565b611e23915060203d602011610cb457610ca6818361254f565b38611b15565b634e487b7160e01b84526041600452602484fd5b611e56915060203d602011610cb457610ca6818361254f565b38611a93565b503461030557602036600319011261030557611e766124ed565b611e7e613254565b60018060a01b03166001600160601b0360a01b601454161760145580f35b5034610305576080366003190112610305576024356001600160401b03811161030157611ecd9036906004016125c2565b90604435906001600160401b038211610305576020611eff84611ef336600487016125c2565b60643591600435612f12565b604051908152f35b5034610305576040366003190112610305576004356001600160401b03811161030157611f389036906004016125c2565b90602435906001600160401b038211610305576020611eff84611f5e36600487016125c2565b9061280d565b5034610305576020366003190112610305576004356001600160401b03811161030157611f959036906004016125c2565b611f9d612799565b50611fa6612799565b50611fb08161328a565b9081835260076020526040832054156120295750815260086020526040812060ff600160405192611fe084612503565b611fe9816130b0565b8452015416600481101561201557610fb092506020820152604051918291602083526020830190612628565b634e487b7160e01b83526021600452602483fd5b6040516321f7174960e11b81526020600482015290819061204e906024830190612603565b0390fd5b5034610305576020366003190112610305576004356001600160401b038111610301576120839036906004016124bd565b61208e929192613254565b81925b60ff841682811015612226576120a8908383612750565b93604085360312610505576040516120bf81612503565b85356001600160401b038111610a93576120de602091369089016125c2565b808352960135956001600160a01b0387168703610a9357612105906020830197885261328a565b61210e816139f6565b50855260056020526040852090519586516001600160401b0381116122125761213b8161082e8554613076565b6020601f82116001146121a8578160019392612173928a9b6121a0999a9b926108ee5750508160011b916000199060031b1c19161790565b83555b818060a01b0390511691019060018060a01b03166001600160601b0360a01b825416179055612772565b929190612091565b83885280882090601f198316895b8181106121fa57509183916121a098999a9b600196958795106121e1575b505050811b018355612176565b015160001960f88460031b161c191690553880806121d4565b9192602060018192868f0151815501940192016121b6565b634e487b7160e01b87526041600452602487fd5b8380f35b50346103055780600319360112610305576012546040516001600160a01b039091168152602090f35b5034610305576020366003190112610305576004356001600160401b038111610301576122849036906004016124bd565b61228c613254565b825b818110612299578380f35b6122a4818385612750565b906122af82806126ed565b903590602081106123e9575b506122c58161399b565b6122d5575b50600191500161228e565b85526008602052604085206122ea83806126ed565b906001600160401b0382116123d5576123078261082e8554613076565b8790601f831160011461236c57826001936020959361233b938c926123615750508160011b916000199060031b1c19161790565b81555b01920135916004831015610a935760019260ff80198354169116179055386122ca565b01359050388061084d565b8389526020892091601f1984168a5b8181106123bd575092600194919285938360209896106123a3575b505050811b01815561233e565b0135600019600384901b60f8161c19169055388080612396565b9193602060018192878701358155019501920161237b565b634e487b7160e01b88526041600452602488fd5b6000199060200360031b1b16386122bb565b5034610305576020366003190112610305576124156124ed565b61241d613254565b60018060a01b03166001600160601b0360a01b601054161760105580f35b5034610305576020366003190112610305576004356001600160401b0381116103015761246c9036906004016124bd565b612474613254565b825b818110612481578380f35b80612495610ea0610e99600194868861271f565b61249e8161374b565b50855260086020528482604082206124b5816132c4565b015501612476565b9181601f84011215610c74578235916001600160401b038311610c74576020808501948460051b010111610c7457565b600435906001600160a01b0382168203610c7457565b604081019081106001600160401b0382111761251e57604052565b634e487b7160e01b600052604160045260246000fd5b60a081019081106001600160401b0382111761251e57604052565b90601f801991011681019081106001600160401b0382111761251e57604052565b6001600160401b03811161251e57601f01601f191660200190565b92919261259782612570565b916125a5604051938461254f565b829481845281830111610c74578281602093846000960137010152565b9080601f83011215610c74578160206125dd9335910161258b565b90565b60005b8381106125f35750506000910152565b81810151838201526020016125e3565b9060209161261c815180928185528580860191016125e0565b601f01601f1916010190565b90602061263e8351604084526040840190612603565b920151906004821015612652576020015290565b634e487b7160e01b600052602160045260246000fd5b9060018060a01b038251168152608061ffff816126a9612697602087015160a0602088015260a0870190612603565b60408701518682036040880152612603565b9460ff606082015116606086015201511691015290565b9181601f84011215610c74578235916001600160401b038311610c745760208381860195010111610c7457565b903590601e1981360301821215610c7457018035906001600160401b038211610c7457602001918136038313610c7457565b9082101561273a576127369160051b8101906126ed565b9091565b634e487b7160e01b600052603260045260246000fd5b919081101561273a5760051b81013590603e1981360301821215610c74570190565b60ff1660ff81146127835760010190565b634e487b7160e01b600052601160045260246000fd5b604051906127a682612503565b6000602083606081520152565b604051906127c260408361254f565b60048252631554d11560e21b6020830152565b604051906127e460408361254f565b60038252621554d160ea1b6020830152565b519069ffffffffffffffffffff82168203610c7457565b91909161282161281b6127b3565b82613358565b612f075761282e90613385565b60135481546001600160a01b03908116929181169160209160649060039061285c6128576127b3565b613385565b5416920154946040519485938492630b4c774160e11b84526004840152602483015261ffff8760081c1660448301525afa908115612b7f57600091612ee8575b50604051906128ac60608361254f565b600282526020820191604036843761012c6128c6826133f0565b5260006128d2826133fd565b5260405163883bdbfd60e01b8152602060048201529051602482018190529092839160448301919060005b818110612ec9575060009492849003928492506001600160a01b031690505afa908115612b7f57600091612db1575b50612943612939826133fd565b5160060b916133f0565b5160060b9003667fffffffffffff198112667fffffffffffff8213176127835761012c9060060b0560020b8060ff1d8181011890620d89e88211612da357600160801b7001fffcb933bd6fad37aa2d162d1a5940016001841602189160028116612d87575b60048116612d6b575b60088116612d4f575b60108116612d33575b60208116612d17575b60408116612cfb575b60808116612cdf575b6101008116612cc3575b6102008116612ca7575b6104008116612c8b575b6108008116612c6f575b6110008116612c53575b6120008116612c37575b6140008116612c1b575b6180008116612bff575b620100008116612be3575b620200008116612bc8575b620400008116612bad575b6208000016612b94575b600012612b8b575b63ffffffff0160201c6001600160a01b03168080029190801581840490911417156127835760ff1690604d821161278357612a9f91600a0a90613475565b915b612aac61281b6127d5565b15612ab45750565b909160049160a0906001600160a01b0390600190612ad190613421565b01541660405193848092633fabe5a360e21b82525afa918215612b7f57600092612b30575b506305f5e1008102908082046305f5e1001490151715612783578115612b1a570490565b634e487b7160e01b600052601260045260246000fd5b90915060a0813d60a011612b77575b81612b4c60a0938361254f565b81010312610c7457612b5d816127f6565b50612b6f6080602083015192016127f6565b509038612af6565b3d9150612b3f565b6040513d6000823e3d90fd5b60001904612a61565b6b048a170391f7dc42444e8fa290910260801c90612a59565b6d2216e584f5fa1ea926041bedfe9890920260801c91612a4f565b916e5d6af8dedb81196699c329225ee6040260801c91612a44565b916f09aa508b5b7a84e1c677de54f3e99bc90260801c91612a39565b916f31be135f97d08fd981231505542fcfa60260801c91612a2e565b916f70d869a156d2a1b890bb3df62baf32f70260801c91612a24565b916fa9f746462d870fdf8a65dc1f90e061e50260801c91612a1a565b916fd097f3bdfd2022b8845ad8f792aa58250260801c91612a10565b916fe7159475a2c29b7443b29c7fa6e889d90260801c91612a06565b916ff3392b0822b70005940c7a398e4b70f30260801c916129fc565b916ff987a7253ac413176f2b074cf7815e540260801c916129f2565b916ffcbe86c7900a88aedcffc83b479aa3a40260801c916129e8565b916ffe5dee046a99a2a811c461f1969c30530260801c916129de565b916fff2ea16466c96a3843ec78b326b528610260801c916129d5565b916fff973b41fa98c081472e6896dfb254c00260801c916129cc565b916fffcb9843d60f6159c9db58835c9266440260801c916129c3565b916fffe5caca7e10e4e61c3624eaa0941cd00260801c916129ba565b916ffff2e50f5f656932ef12357cf3c7fdcc0260801c916129b1565b916ffff97272373d413259a46990580e213a0260801c916129a8565b63ce8ef7fc6000526004601cfd5b903d8082843e612dc1818461254f565b82016040838203126103015782516001600160401b0381116102fd5783019281601f850112156102fd578351612df6816133d9565b94612e04604051968761254f565b81865260208087019260051b82010190848211610a9357602001915b818310612eaf575050506020810151906001600160401b03821161050557019181601f8401121561030557825192602080612e5a866133d9565b612e67604051918261254f565b868152019460051b82010192831161030157602001925b828410612e8f57505050503861292c565b83516001600160a01b03811681036102fd57815260209384019301612e7e565b82518060060b81036102f557815260209283019201612e20565b825163ffffffff168452869450602093840193909201916001016128fd565b612f01915060203d602011610cb457610ca6818361254f565b3861289c565b50620f424091612aa1565b929192612f26612f206127d5565b83613358565b80612f74575b612f685760ff6003612f3d86613385565b01541690604d821161278357612f59612f63936125dd9661280d565b91600a0a90613547565b6134bf565b90506125dd92506134bf565b50612f86612f806127b3565b85613358565b612f2c565b15612f935750565b6332b2baa360e01b60009081526001600160a01b0391909116600452602490fd5b90816020910312610c7457516001600160a01b0381168103610c745790565b90816020910312610c7457518015158103610c745790565b602081830312610c74578051906001600160401b038211610c74570181601f82011215610c7457805161301d81612570565b9261302b604051948561254f565b81845260208284010111610c74576125dd91602080850191016125e0565b6040519061305682612534565b600060808382815260606020820152606060408201528260608201520152565b90600182811c921680156130a6575b602083101461309057565b634e487b7160e01b600052602260045260246000fd5b91607f1691613085565b90604051918260008254926130c484613076565b808452936001811690811561313257506001146130eb575b506130e99250038361254f565b565b90506000929192526020600020906000915b8183106131165750509060206130e992820101386130dc565b60209193508060019154838589010152019101909184926130fd565b9050602092506130e994915060ff191682840152151560051b820101386130dc565b61316690613160613049565b50613385565b61ffff60036040519261317884612534565b80546001600160a01b03168452613191600182016130b0565b60208501526131a2600282016130b0565b6040850152015460ff8116606084015260081c16608082015290565b6131d6906020604051928284809451938492016125e0565b810103902090565b6001600160a01b0316801561323e57600080516020613c2c83398151915280546001600160a01b0319811683179091556001600160a01b03167f8be0079c531659141344cd1fd0a4f28419497f9722a3daafe3b4186f6b6457e0600080a3565b631e4fbdf760e01b600052600060045260246000fd5b600080516020613c2c833981519152546001600160a01b0316330361327557565b63118cdaa760e01b6000523360045260246000fd5b60208151910151906020811061329e575090565b6000199060200360031b1b1690565b8181106132b8575050565b600081556001016132ad565b6132ce8154613076565b90816132d8575050565b81601f600093116001146132ea575055565b8183526020832061330691601f0160051c8101906001016132ad565b8082528160208120915555565b9190601f811161332257505050565b6130e9926000526020600020906020601f840160051c8301931061334e575b601f0160051c01906132ad565b9091508190613341565b908151815190818114938461336f575b5050505090565b6020929394508201209201201438808080613368565b61338e8161328a565b90816000526001602052604060002054156133b457506000526002602052604060002090565b6040516367e8093f60e11b81526020600482015290819061204e906024830190612603565b6001600160401b03811161251e5760051b60200190565b80511561273a5760200190565b80516001101561273a5760400190565b805182101561273a5760209160051b010190565b61342a8161328a565b908160005260046020526040600020541561345057506000526005602052604060002090565b604051632f4e647b60e11b81526020600482015290819061204e906024830190612603565b818102919060001982820991838084109303928084039384600160c01b1115610c7457146134b657600160c01b910990828211900360401b910360c01c1790565b50505060c01c90565b90612710820290600019612710840992828085109403938085039485841115610c74571461354057612710829109818060000316809204600281600302188082026002030280820260020302808202600203028082026002030280820260020302809102600203029360018380600003040190848311900302920304170290565b5091500490565b918183029160001981850993838086109503948086039586851115610c7457146135c25790829109818060000316809204600281600302188082026002030280820260020302808202600203028082026002030280820260020302809102600203029360018380600003040190848311900302920304170290565b505091500490565b805482101561273a5760005260206000200190600090565b6040516323b872dd60e01b602082019081526001600160a01b0393841660248301529390921660448301526064808301949094529281529161364d9160009182919061362f60848761254f565b60018060a01b031694519082865af1613646613b9a565b9083613bca565b8051908115159182613677575b50506136635750565b635274afe760e01b60005260045260246000fd5b61368a9250602080918301019101612fd3565b15388061365a565b60206136ab9181604051938285809451938492016125e0565b8101600c81520301902090565b60206136d19181604051938285809451938492016125e0565b8101600b81520301902090565b6020906136f89282604051948386809551938492016125e0565b82019081520301902090565b6020919283604051948593843782019081520301902090565b60ff600080516020613c6c8339815191525460401c161561373a57565b631afcd79f60e31b60005260046000fd5b600081815260076020526040902054801561382c57600019810181811161278357600654600019810191908211612783578181036137db575b50505060065480156137c5576000190161379f8160066135ca565b8154906000199060031b1b19169055600655600052600760205260006040812055600190565b634e487b7160e01b600052603160045260246000fd5b6138146137ec6137fd9360066135ca565b90549060031b1c92839260066135ca565b819391549060031b91821b91600019901b19161790565b90556000526007602052604060002055388080613784565b5050600090565b600081815260016020526040902054801561382c57600019810181811161278357600054600019810191908211612783578181036138ad575b50505060005480156137c557600019016138878160006135ca565b8154906000199060031b1b19169055600055600052600160205260006040812055600190565b6138cf6138be6137fd9360006135ca565b90549060031b1c92839260006135ca565b9055600052600160205260406000205538808061386c565b600081815260046020526040902054801561382c5760001981018181116127835760035460001981019190821161278357818103613961575b50505060035480156137c5576000190161393b8160036135ca565b8154906000199060031b1b19169055600355600052600460205260006040812055600190565b6139836139726137fd9360036135ca565b90549060031b1c92839260036135ca565b90556000526004602052604060002055388080613920565b806000526007602052604060002054156000146139f057600654600160401b81101561251e576139d76137fd82600185940160065560066135ca565b9055600654906000526007602052604060002055600190565b50600090565b806000526004602052604060002054156000146139f057600354600160401b81101561251e57613a326137fd82600185940160035560036135ca565b9055600354906000526004602052604060002055600190565b80600052600e602052604060002054156000146139f057600d54600160401b81101561251e57613a876137fd826001859401600d55600d6135ca565b9055600d5490600052600e602052604060002055600190565b80600052600a602052604060002054156000146139f057600954600160401b81101561251e57613adc6137fd82600185940160095560096135ca565b905560095490600052600a602052604060002055600190565b806000526001602052604060002054156000146139f057600054600160401b81101561251e57613b316137fd82600185940160005560006135ca565b9055600054906000526001602052604060002055600190565b600082815260018201602052604090205461382c57805490600160401b82101561251e5782613b836137fd8460018096018555846135ca565b905580549260005201602052604060002055600190565b3d15613bc5573d90613bab82612570565b91613bb9604051938461254f565b82523d6000602084013e565b606090565b90613bf05750805115613bdf57805190602001fd5b630a12f52160e11b60005260046000fd5b81511580613c22575b613c01575090565b639996b31560e01b60009081526001600160a01b0391909116600452602490fd5b50803b15613bf956fe9016d09d72d40fdae2fd8ceac6b6234c7706214fd39c1cd1e609a0528c199300360894a13ba1a3210667c828492db98dca3e2076cc3735a920a3ca505d382bbcf0c57e16840df040f15088dc2f81fe391c3923bec73e23a9662efc9c229c6a00a2646970667358221220bde3cce9dc50e3f626a7691a78bbcf9a12fcdb2b057262403610c84290b8787364736f6c634300081a0033",
  "linkReferences": {},
  "deployedLinkReferences": {}
}