{
  "_format": "hh-sol-artifact-1",
  "contractName": "Offer",
  "sourceName": "contracts/Offer.sol",
  "abi": [
    {
      "inputs": [
        {
          "internalType": "address",
          "name": "owner_",
          "type": "address"
        },
        {
          "internalType": "bool",
          "name": "isSell_",
          "type": "bool"
        },
        {
          "internalType": "string",
          "name": "token_",
          "type": "string"
        },
        {
          "internalType": "string",
          "name": "fiat_",
          "type": "string"
        },
        {
          "internalType": "string",
          "name": "method_",
          "type": "string"
        },
        {
          "internalType": "uint16",
          "name": "rate_",
          "type": "uint16"
        },
        {
          "components": [
            {
              "internalType": "uint32",
              "name": "min",
              "type": "uint32"
            },
            {
              "internalType": "uint32",
              "name": "max",
              "type": "uint32"
            }
          ],
          "internalType": "struct Offer.Limits",
          "name": "limits_",
          "type": "tuple"
        },
        {
          "internalType": "string",
          "name": "terms_",
          "type": "string"
        }
      ],
      "stateMutability": "nonpayable",
      "type": "constructor"
    },
    {
      "inputs": [
        {
          "internalType": "address",
          "name": "account",
          "type": "address"
        }
      ],
      "name": "UnauthorizedAccount",
      "type": "error"
    },
    {
      "anonymous": false,
      "inputs": [],
      "name": "OfferUpdated",
      "type": "event"
    },
    {
      "inputs": [],
      "name": "disabled",
      "outputs": [
        {
          "internalType": "bool",
          "name": "",
          "type": "bool"
        }
      ],
      "stateMutability": "view",
      "type": "function"
    },
    {
      "inputs": [],
      "name": "fiat",
      "outputs": [
        {
          "internalType": "string",
          "name": "",
          "type": "string"
        }
      ],
      "stateMutability": "view",
      "type": "function"
    },
    {
      "inputs": [],
      "name": "isSell",
      "outputs": [
        {
          "internalType": "bool",
          "name": "",
          "type": "bool"
        }
      ],
      "stateMutability": "view",
      "type": "function"
    },
    {
      "inputs": [],
      "name": "limits",
      "outputs": [
        {
          "internalType": "uint32",
          "name": "min",
          "type": "uint32"
        },
        {
          "internalType": "uint32",
          "name": "max",
          "type": "uint32"
        }
      ],
      "stateMutability": "view",
      "type": "function"
    },
    {
      "inputs": [],
      "name": "method",
      "outputs": [
        {
          "internalType": "string",
          "name": "",
          "type": "string"
        }
      ],
      "stateMutability": "view",
      "type": "function"
    },
    {
      "inputs": [],
      "name": "owner",
      "outputs": [
        {
          "internalType": "address",
          "name": "",
          "type": "address"
        }
      ],
      "stateMutability": "view",
      "type": "function"
    },
    {
      "inputs": [],
      "name": "rate",
      "outputs": [
        {
          "internalType": "uint16",
          "name": "",
          "type": "uint16"
        }
      ],
      "stateMutability": "view",
      "type": "function"
    },
    {
      "inputs": [
        {
          "internalType": "bool",
          "name": "disabled_",
          "type": "bool"
        }
      ],
      "name": "setDisabled",
      "outputs": [],
      "stateMutability": "nonpayable",
      "type": "function"
    },
    {
      "inputs": [
        {
          "components": [
            {
              "internalType": "uint32",
              "name": "min",
              "type": "uint32"
            },
            {
              "internalType": "uint32",
              "name": "max",
              "type": "uint32"
            }
          ],
          "internalType": "struct Offer.Limits",
          "name": "limits_",
          "type": "tuple"
        }
      ],
      "name": "setLimits",
      "outputs": [],
      "stateMutability": "nonpayable",
      "type": "function"
    },
    {
      "inputs": [
        {
          "internalType": "uint16",
          "name": "rate_",
          "type": "uint16"
        }
      ],
      "name": "setRate",
      "outputs": [],
      "stateMutability": "nonpayable",
      "type": "function"
    },
    {
      "inputs": [
        {
          "internalType": "string",
          "name": "terms_",
          "type": "string"
        }
      ],
      "name": "setTerms",
      "outputs": [],
      "stateMutability": "nonpayable",
      "type": "function"
    },
    {
      "inputs": [],
      "name": "terms",
      "outputs": [
        {
          "internalType": "string",
          "name": "",
          "type": "string"
        }
      ],
      "stateMutability": "view",
      "type": "function"
    },
    {
      "inputs": [],
      "name": "token",
      "outputs": [
        {
          "internalType": "string",
          "name": "",
          "type": "string"
        }
      ],
      "stateMutability": "view",
      "type": "function"
    }
  ],
  "bytecode": "0x6080604052346106f25761110380380380610019816106f7565b92833981018181039161012083126106f25780516001600160a01b03811693908490036106f25760208201518015158091036106f25760408301516001600160401b0381116106f2578461006e91850161071c565b60608401516001600160401b0381116106f2578561008d91860161071c565b60808501519091906001600160401b0381116106f257866100af91870161071c565b9260a08601519461ffff86168096036106f25760409060bf1901126106f25760408051969087016001600160401b03811188821017610418576040526100f760c08201610787565b875261010560e08201610787565b602088019081526101008201519098906001600160401b0381116106f25761012d920161071c565b600080546001600160a81b03191690991760a09290921b60ff60a01b16919091179097558051906001600160401b0382116104185760015490600182811c921680156106e8575b60208310146103f85781601f849311610678575b50602090601f831160011461061057600092610605575b50508160011b916000199060031b1c1916176001555b8051906001600160401b0382116104185760025490600182811c921680156105fb575b60208310146103f85781601f84931161058b575b50602090601f831160011461052357600092610518575b50508160011b916000199060031b1c1916176002555b8051906001600160401b03821161041857600354600181811c9116801561050e575b60208210146103f857601f81116104a9575b50602090601f83116001146104395763ffffffff949392916000918361042e575b50508160011b916000199060031b1c1916176003555b61ffff196004541617600455511667ffffffff00000000600554925160201b169160018060401b0319161717600555805160018060401b03811161041857600654600181811c9116801561040e575b60208210146103f857601f8111610393575b50602091601f821160011461032f57918192600092610324575b50508160011b916000199060031b1c1916176006555b60405161096a90816107998239f35b0151905038806102ff565b601f198216926006600052806000209160005b85811061037b57508360019510610362575b505050811b01600655610315565b015160001960f88460031b161c19169055388080610354565b91926020600181928685015181550194019201610342565b60066000527ff652222313e28459528d920b65115c16c04f3efc82aaedc97be59f3f377c0d3f601f830160051c810191602084106103ee575b601f0160051c01905b8181106103e257506102e5565b600081556001016103d5565b90915081906103cc565b634e487b7160e01b600052602260045260246000fd5b90607f16906102d3565b634e487b7160e01b600052604160045260246000fd5b01519050388061026e565b90601f198316916003600052816000209260005b818110610491575091600193918563ffffffff9897969410610478575b505050811b01600355610284565b015160001960f88460031b161c1916905538808061046a565b9293602060018192878601518155019501930161044d565b60036000527fc2575a0e9e593c00f959f8c92f12db2869c3395a3b0502d05e2516446f71f85b601f840160051c81019160208510610504575b601f0160051c01905b8181106104f8575061024d565b600081556001016104eb565b90915081906104e2565b90607f169061023b565b015190503880610203565b600260009081528281209350601f198516905b818110610573575090846001959493921061055a575b505050811b01600255610219565b015160001960f88460031b161c1916905538808061054c565b92936020600181928786015181550195019301610536565b60026000529091507f405787fa12a823e0f2b7631cc41b3ba8828b3321ca811111fa75cd3aa3bb5ace601f840160051c810191602085106105f1575b90601f859493920160051c01905b8181106105e257506101ec565b600081558493506001016105d5565b90915081906105c7565b91607f16916101d8565b01519050388061019f565b600160009081528281209350601f198516905b8181106106605750908460019594939210610647575b505050811b016001556101b5565b015160001960f88460031b161c19169055388080610639565b92936020600181928786015181550195019301610623565b60016000529091507fb10e2d527612073b26eecdfd717e6a320cf44b4afac2b0732d9fcbe2b7fa0cf6601f840160051c810191602085106106de575b90601f859493920160051c01905b8181106106cf5750610188565b600081558493506001016106c2565b90915081906106b4565b91607f1691610174565b600080fd5b6040519190601f01601f191682016001600160401b0381118382101761041857604052565b81601f820112156106f2578051906001600160401b0382116104185761074b601f8301601f19166020016106f7565b92828452602083830101116106f25760005b82811061077257505060206000918301015290565b8060208092840101518282870101520161075d565b519063ffffffff821682036106f25756fe608080604052600436101561001357600080fd5b60003560e01c9081630c570c8614610803575080632c383a9f1461075b5780632c4e722e146107395780636c5a7d1e146106df57806378f86afc146104e4578063860aefcf146104b65780638da5cb5b1461048d578063a50edca0146103e5578063bed315f81461035a578063c7502c481461024c578063d5025625146101b6578063ee070805146101935763fc0c546a146100ae57600080fd5b3461018e57600036600319011261018e57604051600154600090816100d282610826565b8085529160018116908115610167575060011461010a575b610106846100fa81860382610860565b60405191829182610882565b0390f35b600181527fb10e2d527612073b26eecdfd717e6a320cf44b4afac2b0732d9fcbe2b7fa0cf6939250905b80821061014d575090915081016020016100fa826100ea565b919260018160209254838588010152019101909291610134565b60ff191660208087019190915292151560051b850190920192506100fa91508390506100ea565b600080fd5b3461018e57600036600319011261018e57602060ff600754166040519015158152f35b3461018e57600036600319011261018e57604051600654600090816101da82610826565b8085529160018116908115610167575060011461020157610106846100fa81860382610860565b60068152600080516020610915833981519152939250905b808210610232575090915081016020016100fa826100ea565b919260018160209254838588010152019101909291610219565b3461018e57604036600319011261018e5760006040516040810181811067ffffffffffffffff8211176103465760405260043563ffffffff811681036103425781526024359063ffffffff82168203610342576020810191825282546102be9033906001600160a01b031681146108cb565b63ffffffff81511663ffffffff83511611156103145763ffffffff90511667ffffffff00000000600554925160201b169167ffffffffffffffff191617176005556000805160206108f58339815191528180a180f35b60405162461bcd60e51b81526020600482015260066024820152656c696d69747360d01b6044820152606490fd5b8280fd5b634e487b7160e01b83526041600452602483fd5b3461018e57602036600319011261018e5760043561ffff811680910361018e576000546103939033906001600160a01b031681146108cb565b80156103ba5761ffff1960045416176004556000805160206108f5833981519152600080a1005b606460405162461bcd60e51b81526020600482015260046024820152637261746560e01b6044820152fd5b3461018e57600036600319011261018e576040516002546000908161040982610826565b8085529160018116908115610167575060011461043057610106846100fa81860382610860565b600281527f405787fa12a823e0f2b7631cc41b3ba8828b3321ca811111fa75cd3aa3bb5ace939250905b808210610473575090915081016020016100fa826100ea565b91926001816020925483858801015201910190929161045a565b3461018e57600036600319011261018e576000546040516001600160a01b039091168152602090f35b3461018e57600036600319011261018e57604060055463ffffffff825191818116835260201c166020820152f35b3461018e57602036600319011261018e5760043567ffffffffffffffff811161018e573660238201121561018e57806004013567ffffffffffffffff81116106c9576040519161053e601f8301601f191660200184610860565b818352366024838301011161018e578160009260246020930183860137830101526000546105789033906001600160a01b031681146108cb565b805167ffffffffffffffff81116106c957610594600654610826565b601f811161065c575b50602091601f82116001146105ed579181926000926105e2575b50508160011b916000199060031b1c1916176006555b6000805160206108f5833981519152600080a1005b0151905082806105b7565b601f1982169260066000526000805160206109158339815191529160005b8581106106445750836001951061062b575b505050811b016006556105cd565b015160001960f88460031b161c1916905582808061061d565b9192602060018192868501518155019401920161060b565b6006600052601f820160051c6000805160206109158339815191520190602083106106b3575b601f0160051c60008051602061091583398151915201905b8181106106a7575061059d565b6000815560010161069a565b6000805160206109158339815191529150610682565b634e487b7160e01b600052604160045260246000fd5b3461018e57602036600319011261018e5760043580151580910361018e576000546107169033906001600160a01b031681146108cb565b60ff8019600754169116176007556000805160206108f5833981519152600080a1005b3461018e57600036600319011261018e57602061ffff60045416604051908152f35b3461018e57600036600319011261018e576040516003546000908161077f82610826565b808552916001811690811561016757506001146107a657610106846100fa81860382610860565b600381527fc2575a0e9e593c00f959f8c92f12db2869c3395a3b0502d05e2516446f71f85b939250905b8082106107e9575090915081016020016100fa826100ea565b9192600181602092548385880101520191019092916107d0565b3461018e57600036600319011261018e5760209060ff60005460a01c1615158152f35b90600182811c92168015610856575b602083101461084057565b634e487b7160e01b600052602260045260246000fd5b91607f1691610835565b90601f8019910116810190811067ffffffffffffffff8211176106c957604052565b91909160208152825180602083015260005b8181106108b5575060409293506000838284010152601f8019910116010190565b8060208092870101516040828601015201610894565b156108d35750565b6332b2baa360e01b60009081526001600160a01b0391909116600452602490fdfe4c720dcd587fe71ce2ffe44bdc46bd4c550e30dcd9967b1af0a41c95f45aeae4f652222313e28459528d920b65115c16c04f3efc82aaedc97be59f3f377c0d3fa2646970667358221220fecc78ffafde18bf06adaad234e188b8b1f13d55fe88dc73a69736380f09b86c64736f6c634300081a0033",
  "linkReferences": {},
  "deployedLinkReferences": {}
}