{
  "_format": "hh-sol-artifact-1",
  "contractName": "RepToken",
  "sourceName": "contracts/RepToken.sol",
  "abi": [
    {
      "inputs": [],
      "name": "AccessControlBadConfirmation",
      "type": "error"
    },
    {
      "inputs": [
        {
          "internalType": "address",
          "name": "account",
          "type": "address"
        },
        {
          "internalType": "bytes32",
          "name": "neededRole",
          "type": "bytes32"
        }
      ],
      "name": "AccessControlUnauthorizedAccount",
      "type": "error"
    },
    {
      "inputs": [
        {
          "internalType": "address",
          "name": "target",
          "type": "address"
        }
      ],
      "name": "AddressEmptyCode",
      "type": "error"
    },
    {
      "inputs": [
        {
          "internalType": "address",
          "name": "implementation",
          "type": "address"
        }
      ],
      "name": "ERC1967InvalidImplementation",
      "type": "error"
    },
    {
      "inputs": [],
      "name": "ERC1967NonPayable",
      "type": "error"
    },
    {
      "inputs": [
        {
          "internalType": "address",
          "name": "sender",
          "type": "address"
        },
        {
          "internalType": "uint256",
          "name": "tokenId",
          "type": "uint256"
        },
        {
          "internalType": "address",
          "name": "owner",
          "type": "address"
        }
      ],
      "name": "ERC721IncorrectOwner",
      "type": "error"
    },
    {
      "inputs": [
        {
          "internalType": "address",
          "name": "operator",
          "type": "address"
        },
        {
          "internalType": "uint256",
          "name": "tokenId",
          "type": "uint256"
        }
      ],
      "name": "ERC721InsufficientApproval",
      "type": "error"
    },
    {
      "inputs": [
        {
          "internalType": "address",
          "name": "approver",
          "type": "address"
        }
      ],
      "name": "ERC721InvalidApprover",
      "type": "error"
    },
    {
      "inputs": [
        {
          "internalType": "address",
          "name": "operator",
          "type": "address"
        }
      ],
      "name": "ERC721InvalidOperator",
      "type": "error"
    },
    {
      "inputs": [
        {
          "internalType": "address",
          "name": "owner",
          "type": "address"
        }
      ],
      "name": "ERC721InvalidOwner",
      "type": "error"
    },
    {
      "inputs": [
        {
          "internalType": "address",
          "name": "receiver",
          "type": "address"
        }
      ],
      "name": "ERC721InvalidReceiver",
      "type": "error"
    },
    {
      "inputs": [
        {
          "internalType": "address",
          "name": "sender",
          "type": "address"
        }
      ],
      "name": "ERC721InvalidSender",
      "type": "error"
    },
    {
      "inputs": [
        {
          "internalType": "uint256",
          "name": "tokenId",
          "type": "uint256"
        }
      ],
      "name": "ERC721NonexistentToken",
      "type": "error"
    },
    {
      "inputs": [],
      "name": "FailedInnerCall",
      "type": "error"
    },
    {
      "inputs": [],
      "name": "InvalidInitialization",
      "type": "error"
    },
    {
      "inputs": [],
      "name": "NotInitializing",
      "type": "error"
    },
    {
      "inputs": [],
      "name": "UUPSUnauthorizedCallContext",
      "type": "error"
    },
    {
      "inputs": [
        {
          "internalType": "bytes32",
          "name": "slot",
          "type": "bytes32"
        }
      ],
      "name": "UUPSUnsupportedProxiableUUID",
      "type": "error"
    },
    {
      "anonymous": false,
      "inputs": [
        {
          "indexed": true,
          "internalType": "address",
          "name": "owner",
          "type": "address"
        },
        {
          "indexed": true,
          "internalType": "address",
          "name": "approved",
          "type": "address"
        },
        {
          "indexed": true,
          "internalType": "uint256",
          "name": "tokenId",
          "type": "uint256"
        }
      ],
      "name": "Approval",
      "type": "event"
    },
    {
      "anonymous": false,
      "inputs": [
        {
          "indexed": true,
          "internalType": "address",
          "name": "owner",
          "type": "address"
        },
        {
          "indexed": true,
          "internalType": "address",
          "name": "operator",
          "type": "address"
        },
        {
          "indexed": false,
          "internalType": "bool",
          "name": "approved",
          "type": "bool"
        }
      ],
      "name": "ApprovalForAll",
      "type": "event"
    },
    {
      "anonymous": false,
      "inputs": [
        {
          "indexed": false,
          "internalType": "uint64",
          "name": "version",
          "type": "uint64"
        }
      ],
      "name": "Initialized",
      "type": "event"
    },
    {
      "anonymous": false,
      "inputs": [
        {
          "indexed": true,
          "internalType": "bytes32",
          "name": "role",
          "type": "bytes32"
        },
        {
          "indexed": true,
          "internalType": "bytes32",
          "name": "previousAdminRole",
          "type": "bytes32"
        },
        {
          "indexed": true,
          "internalType": "bytes32",
          "name": "newAdminRole",
          "type": "bytes32"
        }
      ],
      "name": "RoleAdminChanged",
      "type": "event"
    },
    {
      "anonymous": false,
      "inputs": [
        {
          "indexed": true,
          "internalType": "bytes32",
          "name": "role",
          "type": "bytes32"
        },
        {
          "indexed": true,
          "internalType": "address",
          "name": "account",
          "type": "address"
        },
        {
          "indexed": true,
          "internalType": "address",
          "name": "sender",
          "type": "address"
        }
      ],
      "name": "RoleGranted",
      "type": "event"
    },
    {
      "anonymous": false,
      "inputs": [
        {
          "indexed": true,
          "internalType": "bytes32",
          "name": "role",
          "type": "bytes32"
        },
        {
          "indexed": true,
          "internalType": "address",
          "name": "account",
          "type": "address"
        },
        {
          "indexed": true,
          "internalType": "address",
          "name": "sender",
          "type": "address"
        }
      ],
      "name": "RoleRevoked",
      "type": "event"
    },
    {
      "anonymous": false,
      "inputs": [
        {
          "indexed": true,
          "internalType": "address",
          "name": "from",
          "type": "address"
        },
        {
          "indexed": true,
          "internalType": "address",
          "name": "to",
          "type": "address"
        },
        {
          "indexed": true,
          "internalType": "uint256",
          "name": "tokenId",
          "type": "uint256"
        }
      ],
      "name": "Transfer",
      "type": "event"
    },
    {
      "anonymous": false,
      "inputs": [
        {
          "indexed": true,
          "internalType": "address",
          "name": "implementation",
          "type": "address"
        }
      ],
      "name": "Upgraded",
      "type": "event"
    },
    {
      "inputs": [],
      "name": "DEFAULT_ADMIN_ROLE",
      "outputs": [
        {
          "internalType": "bytes32",
          "name": "",
          "type": "bytes32"
        }
      ],
      "stateMutability": "view",
      "type": "function"
    },
    {
      "inputs": [],
      "name": "UPGRADE_INTERFACE_VERSION",
      "outputs": [
        {
          "internalType": "string",
          "name": "",
          "type": "string"
        }
      ],
      "stateMutability": "view",
      "type": "function"
    },
    {
      "inputs": [
        {
          "internalType": "address",
          "name": "to",
          "type": "address"
        },
        {
          "internalType": "uint256",
          "name": "tokenId",
          "type": "uint256"
        }
      ],
      "name": "approve",
      "outputs": [],
      "stateMutability": "nonpayable",
      "type": "function"
    },
    {
      "inputs": [
        {
          "internalType": "address",
          "name": "owner",
          "type": "address"
        }
      ],
      "name": "balanceOf",
      "outputs": [
        {
          "internalType": "uint256",
          "name": "",
          "type": "uint256"
        }
      ],
      "stateMutability": "view",
      "type": "function"
    },
    {
      "inputs": [
        {
          "internalType": "uint256",
          "name": "tokenId",
          "type": "uint256"
        }
      ],
      "name": "burn",
      "outputs": [],
      "stateMutability": "nonpayable",
      "type": "function"
    },
    {
      "inputs": [
        {
          "internalType": "uint256",
          "name": "tokenId",
          "type": "uint256"
        }
      ],
      "name": "getApproved",
      "outputs": [
        {
          "internalType": "address",
          "name": "",
          "type": "address"
        }
      ],
      "stateMutability": "view",
      "type": "function"
    },
    {
      "inputs": [
        {
          "internalType": "bytes32",
          "name": "role",
          "type": "bytes32"
        }
      ],
      "name": "getRoleAdmin",
      "outputs": [
        {
          "internalType": "bytes32",
          "name": "",
          "type": "bytes32"
        }
      ],
      "stateMutability": "view",
      "type": "function"
    },
    {
      "inputs": [
        {
          "internalType": "bytes32",
          "name": "role",
          "type": "bytes32"
        },
        {
          "internalType": "address",
          "name": "account",
          "type": "address"
        }
      ],
      "name": "grantRole",
      "outputs": [],
      "stateMutability": "nonpayable",
      "type": "function"
    },
    {
      "inputs": [
        {
          "internalType": "bytes32",
          "name": "role",
          "type": "bytes32"
        },
        {
          "internalType": "address",
          "name": "account",
          "type": "address"
        }
      ],
      "name": "hasRole",
      "outputs": [
        {
          "internalType": "bool",
          "name": "",
          "type": "bool"
        }
      ],
      "stateMutability": "view",
      "type": "function"
    },
    {
      "inputs": [],
      "name": "initialize",
      "outputs": [],
      "stateMutability": "nonpayable",
      "type": "function"
    },
    {
      "inputs": [
        {
          "internalType": "address",
          "name": "owner",
          "type": "address"
        },
        {
          "internalType": "address",
          "name": "operator",
          "type": "address"
        }
      ],
      "name": "isApprovedForAll",
      "outputs": [
        {
          "internalType": "bool",
          "name": "",
          "type": "bool"
        }
      ],
      "stateMutability": "view",
      "type": "function"
    },
    {
      "inputs": [
        {
          "internalType": "uint256",
          "name": "tokenId_",
          "type": "uint256"
        },
        {
          "internalType": "uint256",
          "name": "_otherTokenId",
          "type": "uint256"
        }
      ],
      "name": "merge",
      "outputs": [],
      "stateMutability": "nonpayable",
      "type": "function"
    },
    {
      "inputs": [],
      "name": "name",
      "outputs": [
        {
          "internalType": "string",
          "name": "",
          "type": "string"
        }
      ],
      "stateMutability": "view",
      "type": "function"
    },
    {
      "inputs": [
        {
          "internalType": "uint256",
          "name": "tokenId",
          "type": "uint256"
        }
      ],
      "name": "ownerOf",
      "outputs": [
        {
          "internalType": "address",
          "name": "",
          "type": "address"
        }
      ],
      "stateMutability": "view",
      "type": "function"
    },
    {
      "inputs": [
        {
          "internalType": "address",
          "name": "owner",
          "type": "address"
        }
      ],
      "name": "ownerToTokenId",
      "outputs": [
        {
          "internalType": "uint256",
          "name": "",
          "type": "uint256"
        }
      ],
      "stateMutability": "view",
      "type": "function"
    },
    {
      "inputs": [],
      "name": "proxiableUUID",
      "outputs": [
        {
          "internalType": "bytes32",
          "name": "",
          "type": "bytes32"
        }
      ],
      "stateMutability": "view",
      "type": "function"
    },
    {
      "inputs": [],
      "name": "register",
      "outputs": [
        {
          "internalType": "uint256",
          "name": "tokenId",
          "type": "uint256"
        }
      ],
      "stateMutability": "nonpayable",
      "type": "function"
    },
    {
      "inputs": [
        {
          "internalType": "bytes32",
          "name": "role",
          "type": "bytes32"
        },
        {
          "internalType": "address",
          "name": "callerConfirmation",
          "type": "address"
        }
      ],
      "name": "renounceRole",
      "outputs": [],
      "stateMutability": "nonpayable",
      "type": "function"
    },
    {
      "inputs": [
        {
          "internalType": "bytes32",
          "name": "role",
          "type": "bytes32"
        },
        {
          "internalType": "address",
          "name": "account",
          "type": "address"
        }
      ],
      "name": "revokeRole",
      "outputs": [],
      "stateMutability": "nonpayable",
      "type": "function"
    },
    {
      "inputs": [
        {
          "internalType": "address",
          "name": "from",
          "type": "address"
        },
        {
          "internalType": "address",
          "name": "to",
          "type": "address"
        },
        {
          "internalType": "uint256",
          "name": "tokenId",
          "type": "uint256"
        }
      ],
      "name": "safeTransferFrom",
      "outputs": [],
      "stateMutability": "nonpayable",
      "type": "function"
    },
    {
      "inputs": [
        {
          "internalType": "address",
          "name": "from",
          "type": "address"
        },
        {
          "internalType": "address",
          "name": "to",
          "type": "address"
        },
        {
          "internalType": "uint256",
          "name": "tokenId",
          "type": "uint256"
        },
        {
          "internalType": "bytes",
          "name": "data",
          "type": "bytes"
        }
      ],
      "name": "safeTransferFrom",
      "outputs": [],
      "stateMutability": "nonpayable",
      "type": "function"
    },
    {
      "inputs": [
        {
          "internalType": "address",
          "name": "operator",
          "type": "address"
        },
        {
          "internalType": "bool",
          "name": "approved",
          "type": "bool"
        }
      ],
      "name": "setApprovalForAll",
      "outputs": [],
      "stateMutability": "nonpayable",
      "type": "function"
    },
    {
      "inputs": [
        {
          "internalType": "uint256",
          "name": "",
          "type": "uint256"
        }
      ],
      "name": "stats",
      "outputs": [
        {
          "internalType": "uint32",
          "name": "createdAt",
          "type": "uint32"
        },
        {
          "internalType": "uint32",
          "name": "upvotes",
          "type": "uint32"
        },
        {
          "internalType": "uint32",
          "name": "downvotes",
          "type": "uint32"
        },
        {
          "internalType": "uint64",
          "name": "volumeUSD",
          "type": "uint64"
        },
        {
          "internalType": "uint32",
          "name": "dealsCompleted",
          "type": "uint32"
        },
        {
          "internalType": "uint32",
          "name": "dealsExpired",
          "type": "uint32"
        },
        {
          "internalType": "uint32",
          "name": "disputesLost",
          "type": "uint32"
        },
        {
          "internalType": "uint32",
          "name": "avgPaymentTime",
          "type": "uint32"
        },
        {
          "internalType": "uint32",
          "name": "avgReleaseTime",
          "type": "uint32"
        }
      ],
      "stateMutability": "view",
      "type": "function"
    },
    {
      "inputs": [
        {
          "internalType": "uint256",
          "name": "tokenId_",
          "type": "uint256"
        },
        {
          "internalType": "uint32",
          "name": "_dealTime",
          "type": "uint32"
        }
      ],
      "name": "statsAvgPaymentTime",
      "outputs": [],
      "stateMutability": "nonpayable",
      "type": "function"
    },
    {
      "inputs": [
        {
          "internalType": "uint256",
          "name": "tokenId_",
          "type": "uint256"
        },
        {
          "internalType": "uint32",
          "name": "_dealTime",
          "type": "uint32"
        }
      ],
      "name": "statsAvgReleaseTime",
      "outputs": [],
      "stateMutability": "nonpayable",
      "type": "function"
    },
    {
      "inputs": [
        {
          "internalType": "uint256",
          "name": "tokenId_",
          "type": "uint256"
        }
      ],
      "name": "statsDealCompleted",
      "outputs": [],
      "stateMutability": "nonpayable",
      "type": "function"
    },
    {
      "inputs": [
        {
          "internalType": "uint256",
          "name": "tokenId_",
          "type": "uint256"
        }
      ],
      "name": "statsDealExpired",
      "outputs": [],
      "stateMutability": "nonpayable",
      "type": "function"
    },
    {
      "inputs": [
        {
          "internalType": "uint256",
          "name": "tokenId_",
          "type": "uint256"
        }
      ],
      "name": "statsDisputeLost",
      "outputs": [],
      "stateMutability": "nonpayable",
      "type": "function"
    },
    {
      "inputs": [
        {
          "internalType": "uint256",
          "name": "tokenId_",
          "type": "uint256"
        },
        {
          "internalType": "uint64",
          "name": "_volumeUSD",
          "type": "uint64"
        }
      ],
      "name": "statsVolumeUSD",
      "outputs": [],
      "stateMutability": "nonpayable",
      "type": "function"
    },
    {
      "inputs": [
        {
          "internalType": "uint256",
          "name": "tokenId_",
          "type": "uint256"
        },
        {
          "internalType": "bool",
          "name": "up_",
          "type": "bool"
        }
      ],
      "name": "statsVote",
      "outputs": [],
      "stateMutability": "nonpayable",
      "type": "function"
    },
    {
      "inputs": [
        {
          "internalType": "bytes4",
          "name": "interfaceId",
          "type": "bytes4"
        }
      ],
      "name": "supportsInterface",
      "outputs": [
        {
          "internalType": "bool",
          "name": "",
          "type": "bool"
        }
      ],
      "stateMutability": "view",
      "type": "function"
    },
    {
      "inputs": [],
      "name": "symbol",
      "outputs": [
        {
          "internalType": "string",
          "name": "",
          "type": "string"
        }
      ],
      "stateMutability": "view",
      "type": "function"
    },
    {
      "inputs": [
        {
          "internalType": "uint256",
          "name": "tokenId",
          "type": "uint256"
        }
      ],
      "name": "tokenURI",
      "outputs": [
        {
          "internalType": "string",
          "name": "",
          "type": "string"
        }
      ],
      "stateMutability": "view",
      "type": "function"
    },
    {
      "inputs": [
        {
          "internalType": "address",
          "name": "from",
          "type": "address"
        },
        {
          "internalType": "address",
          "name": "to",
          "type": "address"
        },
        {
          "internalType": "uint256",
          "name": "tokenId",
          "type": "uint256"
        }
      ],
      "name": "transferFrom",
      "outputs": [],
      "stateMutability": "nonpayable",
      "type": "function"
    },
    {
      "inputs": [
        {
          "internalType": "address",
          "name": "newImplementation",
          "type": "address"
        },
        {
          "internalType": "bytes",
          "name": "data",
          "type": "bytes"
        }
      ],
      "name": "upgradeToAndCall",
      "outputs": [],
      "stateMutability": "payable",
      "type": "function"
    }
  ],
  "bytecode": "0x60a0806040523460295730608052612730908161002f823960805181818161113801526111cc0152f35b600080fdfe608080604052600436101561001357600080fd5b600090813560e01c90816301ffc9a714611a9357508063030b151614611a2f57806306fdde0314611980578063081812fc14611957578063095ea7b31461185d5780631a1f8c5e146117e95780631aa3a008146114ed57806323b872dd146114d5578063248a9ca3146114ae5780632f2ff15d1461147c57806336568abe1461143757806342842e0e1461140d57806342966c68146113ef5780634814f035146113b65780634f1ef2861461118d57806352d1902d146111255780636352211e146110f457806370a08231146110a25780637b0d6a85146110215780638129fc1c14610aff57806391d1485414610aa957806395d89b41146109ac5780639a2edc4914610904578063a217fddf146108e8578063a22cb4651461084d578063ad217ae5146107bc578063ad3cb1cc14610773578063b1241ce514610716578063b4357020146106bf578063b58db50f14610662578063b88d4fde1461060c578063c87b56dd146105b0578063d1c2babb1461022e578063d547741f146101f35763e985e9c5146101a257600080fd5b346101f05760403660031901126101f0576101bb611b83565b6101cc6101c6611b99565b91611c22565b9060018060a01b0316600052602052602060ff604060002054166040519015158152f35b80fd5b50346101f05760403660031901126101f05761022a600435610213611b99565b9061022561022082611ef6565b6120f8565b612430565b5080f35b50346101f05760403660031901126101f0576024356004356001600160a01b0361025782612142565b163303610583576001600160a01b0361026f83612173565b1633036105545782528160205261048c6040832082845283602052637fffffff610469600160408720936102db6102ba63ffffffff875460201c1663ffffffff845460201c16611d03565b825467ffffffff00000000191660209190911b63ffffffff60201b16178255565b61031c6102fc63ffffffff875460401c1663ffffffff845460401c16611d03565b825463ffffffff60401b191660409190911b63ffffffff60401b16178255565b61036b6103436001600160401b03875460601c166001600160401b03845460601c16611f17565b825467ffffffffffffffff60601b191660609190911b67ffffffffffffffff60601b16178255565b6103ac61038c63ffffffff875460a01c1663ffffffff845460a01c16611d03565b825463ffffffff60a01b191660a09190911b63ffffffff60a01b16178255565b6103ed6103cd63ffffffff875460c01c1663ffffffff845460c01c16611d03565b825463ffffffff60c01b191660c09190911b63ffffffff60c01b16178255565b610422610402865460e01c835460e01c611d03565b82546001600160e01b031660e09190911b6001600160e01b031916178255565b019263ffffffff836104406001838854169401938385541690611d03565b60011c161663ffffffff1985541617845563ffffffff80855460201c16915460201c1690611d03565b60011c1663ffffffff60201b82549160201b169063ffffffff60201b1916179055565b600061049782612500565b6001600160a01b03811680159284918415610535575b82825260008051602061267b8339815191526020526040822080546001600160a01b031916905560008051602061263b8339815191528280a450610523578082526020829052604082208281556001018290556001600160a01b039061051290612142565b168152600260205280604081205580f35b637e27328960e01b8252600452602490fd5b61053e83612528565b61054784611be9565b80546000190190556104ad565b60405162461bcd60e51b8152602060048201526007602482015266617070726f766560c81b6044820152606490fd5b60405162461bcd60e51b815260206004820152600560248201526437bbb732b960d91b6044820152606490fd5b50346101f05760203660031901126101f0576105cd600435612142565b50806040516105dd602082611c5b565b52506106086040516105f0602082611c5b565b60008152604051918291602083526020830190611b42565b0390f35b50346101f05760803660031901126101f057610626611b83565b61062e611b99565b606435916001600160401b03831161065e5761065161065b933690600401611cad565b9160443591611f4e565b80f35b8380fd5b50346101f05760203660031901126101f05761067c612099565b60043581528060205261065b6040822061069f63ffffffff825460c01c16611f37565b815463ffffffff60c01b191660c09190911b63ffffffff60c01b16179055565b50346101f05760203660031901126101f0576106d9612099565b60043581528060205261065b604082206106f6815460e01c611f37565b81546001600160e01b031660e09190911b6001600160e01b031916179055565b50346101f05760203660031901126101f057610730612099565b60043581528060205261065b6040822061075363ffffffff825460a01c16611f37565b815463ffffffff60a01b191660a09190911b63ffffffff60a01b16179055565b50346101f057806003193601126101f05750610608604051610796604082611c5b565b60058152640352e302e360dc1b6020820152604051918291602083526020830190611b42565b50346101f05760203660031901126101f0576040610120916004358152806020522063ffffffff60018254920154604051928281168452828160201c166020850152828160401c1660408501526001600160401b038160601c166060850152828160a01c166080850152828160c01c1660a085015260e01c60c084015281811660e084015260201c16610100820152f35b50346101f05760403660031901126101f057610867611b83565b61086f611cf4565b6001600160a01b039091169081156108d45761088a33611c22565b828452602052604083209015159060ff1981541660ff83161790556040519081527f17307eab39ab6107e8899845ad3d59bd9653f200f220920489ca2b5937696c3160203392a380f35b630b61174360e31b83526004829052602483fd5b50346101f057806003193601126101f057602090604051908152f35b50346101f05760403660031901126101f057600435610921611cf4565b610929612099565b1561096d5781528060205261065b6040822061094e63ffffffff825460201c16611f37565b63ffffffff60201b82549160201b169063ffffffff60201b1916179055565b81528060205261065b6040822061098d63ffffffff825460401c16611f37565b63ffffffff60401b82549160401b169063ffffffff60401b1916179055565b50346101f057806003193601126101f05760405190806000805160206126bb83398151915254906109dc82611d33565b8085529160018116908115610a825750600114610a18575b61060884610a0481860382611c5b565b604051918291602083526020830190611b42565b6000805160206126bb83398151915281527ff4bad0a69248f59680a4f2b3000328cec71a413447c96781cfe5996daa8c456e939250905b808210610a6857509091508101602001610a04826109f4565b919260018160209254838588010152019101909291610a4f565b60ff191660208087019190915292151560051b85019092019250610a0491508390506109f4565b50346101f05760403660031901126101f05760ff6040602092610aca611b99565b600435825260008051602061265b83398151915285528282206001600160a01b03909116825284522054604051911615158152f35b50346101f057806003193601126101f05760008051602061269b833981519152549060ff8260401c1615916001600160401b03811680159081611019575b600114908161100f575b159081611006575b50610ff75767ffffffffffffffff19811660011760008051602061269b8339815191525582610fca575b506040805192610b898285611c5b565b601084526f2932b83aba30ba34b7b7102a37b5b2b760811b6020850152815193610bb38386611c5b565b600385526205245560ec1b6020860152610bcb61256b565b610bd361256b565b8051906001600160401b038211610fb6578190610bfe6000805160206125fb83398151915254611d33565b601f8111610f34575b50602090601f8311600114610ea9578692610e9e575b50508160011b916000199060031b1c1916176000805160206125fb833981519152555b83516001600160401b038111610e8a57610c686000805160206126bb83398151915254611d33565b601f8111610e1a575b50602094601f8211600114610d9c579484958293949592610d91575b50508160011b916000199060031b1c1916176000805160206126bb833981519152555b610cb9336122d5565b50684445414c5f524f4c4560b81b80845260008051602061265b8339815191526020818152848620600190810154848852929091528486206a4d41524b45545f524f4c4560a81b9101819055935193917fbd79b86ffe0ab8e8776151514217cd7cacd52c909f66475c3af44e129f0b00ff8680a460018055610d39575080f35b60207fc7f505b2f371ae2175ee4913f4499e1f2633a7b5936321eed1cdaeb6115181d29168ff00000000000000001960008051602061269b833981519152541660008051602061269b8339815191525560018152a180f35b015190503880610c8d565b601f198216956000805160206126bb833981519152865280862091865b888110610e0257508360019596979810610de9575b505050811b016000805160206126bb83398151915255610cb0565b015160001960f88460031b161c19169055388080610dce565b91926020600181928685015181550194019201610db9565b6000805160206126bb83398151915285527ff4bad0a69248f59680a4f2b3000328cec71a413447c96781cfe5996daa8c456e601f830160051c81019160208410610e80575b601f0160051c01905b818110610e755750610c71565b858155600101610e68565b9091508190610e5f565b634e487b7160e01b84526041600452602484fd5b015190503880610c1d565b6000805160206125fb83398151915287526000805160206126db8339815191529250601f198416875b818110610f1c5750908460019594939210610f03575b505050811b016000805160206125fb83398151915255610c40565b015160001960f88460031b161c19169055388080610ee8565b92936020600181928786015181550195019301610ed2565b9091506000805160206125fb8339815191528652601f830160051c6000805160206126db833981519152019060208410610fa0575b90601f8493920160051c6000805160206126db83398151915201905b818110610f925750610c07565b878155849350600101610f85565b6000805160206126db8339815191529150610f69565b634e487b7160e01b85526041600452602485fd5b68ffffffffffffffffff1916680100000000000000011760008051602061269b8339815191525538610b79565b63f92ee8a960e01b8252600482fd5b90501538610b4f565b303b159150610b47565b849150610b3d565b50346101f05760403660031901126101f0576024356001600160401b038116810361109e5761065b90611052612099565b60043583528260205261107660408420916001600160401b03835460601c16611f17565b815467ffffffffffffffff60601b191660609190911b67ffffffffffffffff60601b16179055565b5080fd5b50346101f05760203660031901126101f0576110bc611b83565b906001600160a01b038216156110e05760206110d783611be9565b54604051908152f35b6322718ad960e21b81526004819052602490fd5b50346101f05760203660031901126101f0576020611113600435612142565b6040516001600160a01b039091168152f35b50346101f057806003193601126101f0577f00000000000000000000000000000000000000000000000000000000000000006001600160a01b0316300361117e57602060405160008051602061261b8339815191528152f35b63703e46dd60e11b8152600490fd5b5060403660031901126101f0576111a2611b83565b906024356001600160401b03811161109e576111c2903690600401611cad565b6001600160a01b037f000000000000000000000000000000000000000000000000000000000000000016308114908115611393575b506113845781805260008051602061265b8339815191526020908152604080842033855290915282205460ff161561136c576040516352d1902d60e01b8152926001600160a01b0381169190602085600481865afa80958596611334575b5061126e57634c9c8ce360e01b84526004839052602484fd5b90918460008051602061261b83398151915281036113225750813b156113105760008051602061261b83398151915280546001600160a01b031916821790557fbc7cd75a20ee27fd9adebab32041f755214dbc6bffa90cc0225b39da2e5c2d3b8480a281518390156112f6578083602061022a95519101845af46112f06124d0565b91612599565b505050346113015780f35b63b398979f60e01b8152600490fd5b634c9c8ce360e01b8452600452602483fd5b632a87526960e21b8552600452602484fd5b9095506020813d602011611364575b8161135060209383611c5b565b8101031261136057519438611255565b8480fd5b3d9150611343565b63e2517d3f60e01b8252336004526024829052604482fd5b63703e46dd60e11b8252600482fd5b60008051602061261b833981519152546001600160a01b031614159050386111f7565b50346101f05760203660031901126101f0576020906040906001600160a01b036113de611b83565b168152600283522054604051908152f35b50346101f05760203660031901126101f05761022a336004356121ad565b50346101f05761065b61141f36611baf565b906040519261142f602085611c5b565b858452611f4e565b50346101f05760403660031901126101f057611451611b99565b336001600160a01b0382160361146d5761022a90600435612430565b63334bd91960e11b8252600482fd5b50346101f05760403660031901126101f05761022a60043561149c611b99565b906114a961022082611ef6565b612387565b50346101f05760203660031901126101f05760206114cd600435611ef6565b604051908152f35b50346101f05761065b6114e736611baf565b91611d6d565b50346101f057806003193601126101f057338152600260205260408120546117ba5760015433156117a65761152181612500565b6001600160a01b0381168015159190839083611787575b61154133611be9565b8054600101905581865260008051602061267b8339815191526020526040862080546001600160a01b031916339081179091559060008051602061263b8339815191528780a450611773578082528160205263ffffffff6040832054166040519061012082018281106001600160401b03821117610fb65760409081529082526020808301858152838301868152606085018781526080860188815260a0870189815260c088018a815260e089018b81526101008a018c81528b8d528c8952988c2099518a54975167ffffffffffffffff1990981663ffffffff909116179690971b63ffffffff60201b169590951788559496949290919051855463ffffffff60401b191660409190911b63ffffffff60401b1617855551845467ffffffffffffffff60601b191660609190911b67ffffffffffffffff60601b1617845551835463ffffffff60a01b191660a09190911b63ffffffff60a01b1617835551825463ffffffff60c01b191660c09190911b63ffffffff60c01b161782555181546001600160e01b031660e09190911b6001600160e01b03191617815591516001929092018054915167ffffffffffffffff1990921663ffffffff9093169290921760209190911b63ffffffff60201b1617905580825260208281526040808420805463ffffffff191663ffffffff42161790553384526002909152822081905560015491600019831461175f5750600160209201600155604051908152f35b634e487b7160e01b81526011600452602490fd5b6339e3563760e11b82526004829052602482fd5b61179082612528565b61179983611be9565b8054600019019055611538565b633250574960e11b82526004829052602482fd5b60405162461bcd60e51b8152602060048201526007602482015266616c726561647960c81b6044820152606490fd5b50346101f05761065b61182b637fffffff61180336611b1a565b61180e939193612099565b8386528560205263ffffffff600160408820015460201c16611d03565b60011c1690835282602052600160408420019063ffffffff60201b82549160201b169063ffffffff60201b1916179055565b50346101f05760403660031901126101f057611877611b83565b60243561188381612142565b33151580611944575b80611926575b6119135781906001600160a01b0384811691167f8c5be1e5ebec7d5bd14f71427d1e84f3dd0314c0f7b2291e5b200ac8c7c3b9258680a482527f80bb2b638cc20bc4d0a60d66940f3ab4a00c1d7b313497ca82fb0b4ab00793046020526040822080546001600160a01b0319166001600160a01b0390921691909117905580f35b63a9fbf51f60e01b845233600452602484fd5b5061193081611c22565b338552602052604084205460ff1615611892565b506001600160a01b03811633141561188c565b50346101f05760203660031901126101f057602061111360043561197a81612142565b50612173565b50346101f057806003193601126101f05760405190806000805160206125fb83398151915254906119b082611d33565b8085529160018116908115610a8257506001146119d75761060884610a0481860382611c5b565b6000805160206125fb83398151915281526000805160206126db833981519152939250905b808210611a1557509091508101602001610a04826109f4565b9192600181602092548385880101520191019092916119fc565b50346101f057611a6b637fffffff611a4636611b1a565b611a51939193612099565b8385528460205263ffffffff600160408720015416611d03565b60011c169082528160205263ffffffff60016040842001911663ffffffff1982541617905580f35b90503461109e57602036600319011261109e576004356001600160e01b031981169081810361065e57602093506380ac58cd60e01b8214918215611b09575b508115611af8575b8115611ae8575b5015158152f35b611af2915061206d565b38611ae1565b9050611b038161206d565b90611ada565b635b5e139f60e01b14915038611ad2565b6040906003190112611b3d576004359060243563ffffffff81168103611b3d5790565b600080fd5b919082519283825260005b848110611b6e575050826000602080949584010152601f8019910116010190565b80602080928401015182828601015201611b4d565b600435906001600160a01b0382168203611b3d57565b602435906001600160a01b0382168203611b3d57565b6060906003190112611b3d576004356001600160a01b0381168103611b3d57906024356001600160a01b0381168103611b3d579060443590565b6001600160a01b031660009081527f80bb2b638cc20bc4d0a60d66940f3ab4a00c1d7b313497ca82fb0b4ab00793036020526040902090565b6001600160a01b031660009081527f80bb2b638cc20bc4d0a60d66940f3ab4a00c1d7b313497ca82fb0b4ab00793056020526040902090565b90601f801991011681019081106001600160401b03821117611c7c57604052565b634e487b7160e01b600052604160045260246000fd5b6001600160401b038111611c7c57601f01601f191660200190565b81601f82011215611b3d57803590611cc482611c92565b92611cd26040519485611c5b565b82845260208383010111611b3d57816000926020809301838601378301015290565b602435908115158203611b3d57565b9063ffffffff8091169116019063ffffffff8211611d1d57565b634e487b7160e01b600052601160045260246000fd5b90600182811c92168015611d63575b6020831014611d4d57565b634e487b7160e01b600052602260045260246000fd5b91607f1691611d42565b909291906001600160a01b0384168015611ee057600094611d8d84612500565b9533151580611e47575b5091849160008051602061263b833981519152611dc697989460018060a01b03861698899384611e2857611be9565b8054600101905584815260008051602061267b8339815191526020526040812080546001600160a01b0319168517905580a4506001600160a01b0316808303611e0e57505050565b6364283d7b60e01b60005260045260245260445260646000fd5b611e3187612528565b611e3a88611be9565b8054600019019055611be9565b80611e90575b15611e585738611d97565b84906001600160a01b038816611e7a57602491637e27328960e01b8252600452fd5b60449163177e802f60e01b825233600452602452fd5b506001600160a01b03871633148015611ec3575b80611e4d5750336001600160a01b03611ebc87612173565b1614611e4d565b50611ecd87611c22565b338252602052604081205460ff16611ea4565b633250574960e11b600052600060045260246000fd5b60005260008051602061265b83398151915260205260016040600020015490565b906001600160401b03809116911601906001600160401b038211611d1d57565b63ffffffff1663ffffffff8114611d1d5760010190565b9291611f5b818386611d6d565b813b611f68575b50505050565b604051630a85bd0160e11b81523360048201526001600160a01b0394851660248201526044810191909152608060648201529216919060209082908190611fb3906084830190611b42565b03816000865af1809160009161202a575b5090611ff55750611fd36124d0565b80519081611ff05782633250574960e11b60005260045260246000fd5b602001fd5b6001600160e01b03191663757a42ff60e11b01612016575038808080611f62565b633250574960e11b60005260045260246000fd5b6020813d602011612065575b8161204360209383611c5b565b8101031261109e5751906001600160e01b0319821682036101f0575038611fc4565b3d9150612036565b63ffffffff60e01b16637965db0b60e01b811490811561208b575090565b6301ffc9a760e01b14919050565b3360009081527f016eb059e9c793735a2503f97f90d6deeb7a67739000c45e8a0feaf950573468602052604090205460ff16156120d257565b63e2517d3f60e01b600090815233600452684445414c5f524f4c4560b81b602452604490fd5b600081815260008051602061265b8339815191526020908152604080832033845290915290205460ff161561212a5750565b63e2517d3f60e01b6000523360045260245260446000fd5b61214b81612500565b906001600160a01b0382161561215f575090565b637e27328960e01b60005260045260246000fd5b60009081527f80bb2b638cc20bc4d0a60d66940f3ab4a00c1d7b313497ca82fb0b4ab007930460205260409020546001600160a01b031690565b6121b681612500565b916001600160a01b031680151580612238575b50600090506001600160a01b0383168061221a575b82825260008051602061267b8339815191526020526040822080546001600160a01b031916905560008051602061263b8339815191528280a490565b61222383612528565b61222c84611be9565b821981540190556121de565b80612283575b1561224957806121c9565b6001600160a01b03831661226c5750637e27328960e01b60005260045260246000fd5b63177e802f60e01b60005260045260245260446000fd5b506001600160a01b038316811480156122b6575b8061223e5750806001600160a01b036122af84612173565b161461223e565b506122c083611c22565b8160005260205260ff60406000205416612297565b6001600160a01b03811660009081527fb7db2dd08fcb62d0c9e08c51941cae53c267786a0b75803fb7960902fc8ef97d602052604090205460ff16612381576001600160a01b031660008181527fb7db2dd08fcb62d0c9e08c51941cae53c267786a0b75803fb7960902fc8ef97d60205260408120805460ff191660011790553391907f2f8788117e7eff1d82e926ec794901d17c78024a50270940304540a733656f0d8180a4600190565b50600090565b600081815260008051602061265b833981519152602090815260408083206001600160a01b038616845290915290205460ff1661242957600081815260008051602061265b833981519152602090815260408083206001600160a01b0395909516808452949091528120805460ff19166001179055339291907f2f8788117e7eff1d82e926ec794901d17c78024a50270940304540a733656f0d9080a4600190565b5050600090565b600081815260008051602061265b833981519152602090815260408083206001600160a01b038616845290915290205460ff161561242957600081815260008051602061265b833981519152602090815260408083206001600160a01b0395909516808452949091528120805460ff19169055339291907ff6391f5c32d9c69d2a47ea670b442974b53935d1edc7fd64eb21e047a839171b9080a4600190565b3d156124fb573d906124e182611c92565b916124ef6040519384611c5b565b82523d6000602084013e565b606090565b600090815260008051602061267b83398151915260205260409020546001600160a01b031690565b6000527f80bb2b638cc20bc4d0a60d66940f3ab4a00c1d7b313497ca82fb0b4ab007930460205260406000206bffffffffffffffffffffffff60a01b8154169055565b60ff60008051602061269b8339815191525460401c161561258857565b631afcd79f60e31b60005260046000fd5b906125bf57508051156125ae57805190602001fd5b630a12f52160e11b60005260046000fd5b815115806125f1575b6125d0575090565b639996b31560e01b60009081526001600160a01b0391909116600452602490fd5b50803b156125c856fe80bb2b638cc20bc4d0a60d66940f3ab4a00c1d7b313497ca82fb0b4ab0079300360894a13ba1a3210667c828492db98dca3e2076cc3735a920a3ca505d382bbcddf252ad1be2c89b69c2b068fc378daa952ba7f163c4a11628f55a4df523b3ef02dd7bc7dec4dceedda775e58dd541e08a116c6c53815c0bd028192f7b62680080bb2b638cc20bc4d0a60d66940f3ab4a00c1d7b313497ca82fb0b4ab0079302f0c57e16840df040f15088dc2f81fe391c3923bec73e23a9662efc9c229c6a0080bb2b638cc20bc4d0a60d66940f3ab4a00c1d7b313497ca82fb0b4ab007930137c58c799b6609234b945e882912ee9ad34948a1dfaa20a97485e1a7752bbf81a2646970667358221220bc2d39c819dc8ff32a99b9647342872205d51d88d981ad362005656afcaac20764736f6c634300081a0033",
  "linkReferences": {},
  "deployedLinkReferences": {}
}